:400000000080002011000000415B0000415B000080B500AF024A034B1B68136005F09AFDBC760040FA46004010B5054C237833B9044B13B10448AFF300800123237010BD43
:400040009081FF1F000000000C7B0000084B10B51BB108480849AFF300800848036803B910BD074B002BFBD0BDE81040184700BF000000000C7B00009481FF1F0881FF1F23
:400080000000000080B58EB002AF78600123FB620523BB624FF47A737B6200233B620C2003F082F9F861F86A0221002203F08CFC0246FB691A60FB697A6A5A60FB69474A7F
:4000C0009A600C2003F070F9B861FB691A68BB691A60BB693A6A5A60BB69414A9A607B680093002301933F483F496422FB6904F097F800230093002301933C483C49642211
:40010000BB6904F08DF80C2003F04EF97861F86A0221002203F058FC02467B691A607B693A6A5A607B69334A9A600C2003F03CF938617B691A683B691A603B697A6A5A60FF
:400140003B692D4A9A60002300930023019325482A4964227B6904F063F87B680093002301932248264964223B6904F059F80C2003F01AF9F860B86A0221002203F024FCEB
:400180000246FB681A60FB687A6A5A60FB681D4A9A600C2003F008F9B860FB681A68BB681A60BB687A6A5A60BB68174A9A6000230093002301930D4814496422FB6804F060
:4001C0002FF80023009300230193064810496422BB6804F025F83037BD4680BDAC81FF1FB481FF1F75020000107B000015020000187B0000B681FF1FAE81FF1F207B0000DC
:40020000287B0000B881FF1FB081FF1F307B0000387B000080B586B000AF78600023FB810023FB827B683B613B6919683B695B6807F10E02084611461A46002303F056FC66
:400240000346012B02D00123FB8211E0B7F91630002B09D13B699A6813889BB29BB29BB201339BB29BB21380FB8901339BB2FB81DAE700BF80B586B000AF78600023FB828E
:400280000023BB827B683B613B6919683B695B6807F10E02084611461A46002303F02EFD0346012B19D1FB89FA8A9A4204D0FB89FB820123BB8210E0B7F91430002B09D123
:4002C0003B699A6813889BB29BB29BB201339BB29BB21380FB8A0133FB82D5E780B483B000AF01237B6000233B6032E01E4A3B6832F8133099B21D4A3B6832F813300AB2A8
:400300001BB29A4201D100237B60174A3B6832F8133099B2154A3B6822F81310144A3B6832F8133099B2134A3B6832F813300AB21BB29A4201D100237B600D4A3B6832F8CA
:40034000133099B20B4A3B6822F813103B6801333B603B68022BC9DD7B6818460C37BD465DF8047B704700BFAC81FF1FBC81FF1FB481FF1FC481FF1F80B582B002AF052068
:400380000421002203F020FB0246114B1A60104B1B68002B19D00E4B1B6818460D4903F017FF02230093002301930B480B496422002303F035FF01230093094B0193094869
:4003C00009496422002303F02BFFBD4680BD00BFCC81FF1F407B0000ED030000547B0000D081FF1FED0600005C7B000080B588B000AF786000F0EAF900233B6130E03B698E
:400400000A2202FA03F3FB6104F0ECFBB861A94B1A6807F10C0310461946FA69002303F06DFC0346002B02D0A34B01221A6004F0D9FB0246BB69D31A7B617A69FB699A4249
:4004400002D29D4B01221A60FB6903F10F027B699A4202D2984B01221A603B6901333B613B69042BCBDD00233B6112E0914B1A6807F11003104619460022002303F036FB7F
:400480000346012B02D08C4B01221A603B6901333B613B69042BE9DD00233B6130E03B690A2202FA03F3FB6104F09CFBB861814B1A6807F1100310461946FA69002303F05C
:4004C00015FB0346002B02D07B4B01221A6004F089FB0246BB69D31A7B617A69FB699A4202D2754B01221A60FB6903F10F027B699A4202D2704B01221A603B6901333B6179
:400500003B69042BCBDD6D4B00221A606C4B1B68184604F043FA02E0142004F071F8674B1B68552BF8D1142004F06AF8634B00221A6000233B613CE05E4B1A6807F10C0351
:40054000104619460022002303F0D8FB0346012B02D0594B01221A60564B1A6807F11003104619460022002303F0C0FA0346012B02D0514B01221A60504B1B68552B02D16D
:400580004D4B01221A604E4B1B681846042104F0BFF84A4B1B68552B02D1474B01221A60474B1B681846012104F0B2F83B6901333B613B69042BBFDD02E0142004F020F8EA
:4005C0003E4B1B68552BF8D1142004F019F83B4B00221A6000233B6112E0364B1A6807F10C03104619460022002303F087FB0346012B02D0304B01221A603B6901333B614E
:400600003B69042BE9DD2E4B1B68184604F0C6F902E0142003F0F4FF284B1B68552BF8D1142003F0EDFF254B00221A6000233B613CE0204B1A6807F1100310461946002210
:40064000002303F053FA0346012B02D01A4B01221A60184B1A6807F10C03104619460022002303F04BFB0346012B02D0124B01221A60124B1B68552B02D10F4B01221A6044
:400680000F4B1B681846042104F042F80B4B1B68552B02D1084B01221A60094B1B681846012104F035F83B6901333B613B69042BBFDD0AE0CC81FF1FDC81FF1FE081FF1FE6
:4006C000D081FF1F142003F09BFF064B1B68552BF8D1142003F094FF034B1B680133024A136087E6E081FF1FD481FF1F80B586B000AF7860002004F0ADF804F073FA7861EB
:400700000023FB602D4B55221A602D4B1A6807F10C0310461946AF22002303F0E7F90346002B02D0274B01221A6004F05BFA02467B69D31A3B613B69AE2B02D8214B01221C
:400740001A603B69BE2B02D91E4B01221A601B4B55221A60002004F07DF804F043FA7861164B55221A60164B1A6807F10C0310461946AF22002303F0C1FA0346002B02D0CE
:40078000104B01221A6004F02DFA02467B69D31A3B613B69AE2B02D80A4B01221A603B69BE2B02D9074B01221A60044B55221A60054B1B680133044A13609BE7E081FF1FC8
:4007C000CC81FF1FDC81FF1FD881FF1F80B588B000AF4B23BB6105237B6107233B6100204FF0FF3103F094FF04F0FCF9F860AF2003F006FF04F0F6F9B860BA68FB68D21AA3
:400800003B69AF339A4202D91A4B01221A6004F0E9F9B860BB683B600023FB611FE0FB69BA6902FB03F2BB6813447B603B461846B96903F095FE04F0D5F902467B68D21A21
:400840003B69AF339A4202D90A4B01221A600A4B1B680133084A1360FB690133FB61FA697B699A42DBD30020022103F051FF2037BD4680BDDC81FF1FD481FF1F80B483B041
:4008800000AF01237B60124B1A68124B1B689A4201D100237B60104B1A68104B1B689A4201D100237B600E4B1B68012B01D100237B60094B1B68094A1360054B1B68054A21
:4008C00013607B6818460C37BD465DF8047B7047D481FF1FE481FF1FD881FF1FE881FF1FDC81FF1F80B586B002AFF860B9607A600F4A7B681360B868182104F0C3FFFB687C
:40090000013B0093002301930A480B496422002303F086FCFB68009300230193074808496422002303F07CFC1037BD4680BD00BFF081FF1F45090000647B0000C909000038
:400940006C7B000080B584B000AF78604123FB7313E01A4B1A68FB7B5BB210461946002204F0E6FF0346012B04D1154B1B68184604F06EFFFB7B0133FB73FB7B582BE8D903
:400980000F4B1B681846002104F012FF04F02AF903460333BB60BB680A4AA2FB03121209962101FB02F29B1ABB60BB68312B01D83223BB60B86803F023FEC7E7EC81FF1F35
:4009C000F081FF1FB5814E1B80B586B000AF786000233B610023FB604123FB7521E0274B1A6807F10B03104619464FF6FF7204F083FF0346002B0FD0FB7A97F917205BB24E
:400A00009A4206D11E4B1B680133184604F020FF02E001233B6108E0FB7DDBB20133DBB2FB7597F91730582BD9DD154B1B6801331846002104F0BCFE3B69012B14D109E0C0
:400A40000E4B1A6807F10B03104619464FF6FF7204F052FFFB7A5BB2582BF1D1FB680133FB6000233B6107E0FB68012B04DC054B1B680133034A1360AEE700BFEC81FF1F71
:400A8000F081FF1FF481FF1F80B483B000AF094B1B68002B02D100237B6001E001237B60044B00221A607B6818460C37BD465DF8047B7047F481FF1F80B582B002AFC820BB
:400AC000C82102F0FDFF02461F4B1A601E4BAA225A601D4B00229A60C820002102F0F0FF0246194BDA60184B00221A61164B00225A61154B1B68002B03D1134BDB68002BC4
:400B00001FD0114B1B681846104903F061FB0E4BDB6818460E4903F05BFB00230093002301930C480C496422074B03F079FB0023009300230193074808496422084B03F019
:400B40006FFBBD4680BD00BFFC81FF1F747B0000847B0000550C0000947B00009C7B00000882FF1F80B584B000AF78603960786800210022002302F0B9FF0346012B02D193
:400B8000154B01221A600023FB6013E0786800210022002303F0B2F80346012B02D00E4B01221A603B681B685A1C3B681A60FB680133FB60FB68C72BE8D9786800210022C3
:400BC000002303F09BF80346012B02D1024B01221A601037BD4680BDF881FF1F80B584B000AF78603960786800210022002303F085F80346012B02D1154B01221A60002355
:400C0000FB6013E0786800210022002302F06EFF0346012B02D00E4B01221A603B681B685A1C3B681A60FB680133FB60FB68C72BE8D9786800210022002302F057FF0346EC
:400C4000012B02D1024B01221A601037BD4680BDF881FF1F80B584B000AF78607B68FB60FB685B68AA2B07D1FB681A68FB68083310461946FFF776FFFB681B681846002164
:400C80000022002303F03AF80346012B02D10A4B01221A60FB681A68FB68083310461946FFF79CFFFB681A68FB68083310461946FFF758FFEEE700BFF881FF1F80B483B0B0
:400CC00000AF01237B60134B1B68002B01D000237B60114B9A68114B1B689A4202D100237B6003E00C4B9B680C4A13600A4B5A690B4B1B689A4202D100237B6003E0064BA9
:400D00005B69074A13607B6818460C37BD465DF8047B7047F881FF1FFC81FF1F1482FF1F1882FF1F80B584B002AF78607B6800930023019309480A49A022002303F070FA76
:400D400003F060FF0246074B1A60064B1B680133044A13600837BD4680BD00BFB90D0000A87B00002082FF1F80B586B000AF7860C8233B617B68002B03D07B681B687B61C1
:400D800001E000237B610223FB605923BB60FB68BA6802FB03F3BB60386903F031FC7B69002B08D0002003F02BFC786903F05AFB002003F057FBE6E780B586B002AF786078
:400DC0004FF47A73FB60002003F088FCB860F86803F016FC0F4B00221A60BB6800930D4B01930D480D496422002303F019FABB68009300230193084809496422054B03F08A
:400E00000FFA084B1B889BB201339AB2054B1A80DDE700BFB0050020690D0000B07B0000B87B00001C82FF1F80B582B000AF01237B60164B1A88164B1B889BB29A4202D1FC
:400E400000237B6004E0124B1B889AB20F4B1A8003F0D8FE02460F4B1A600E4B1A680E4B1B689A4202D200237B6009E0094B1A68094B1B68D31A0322934201D900237B60B1
:400E80007B6818460837BD4680BD00BF0C81FF1F1C82FF1F2482FF1F2082FF1F80B582B002AF01200421002202F08EFD0246204B1A601F4B1B68002B37D01D4B1B68184636
:400EC0001C4903F085F9002300931B4B01931B481B4964221B4B03F0A3F9012300931A4B01931A481A496422164B03F099F90023009300230193174817496422002303F081
:400F00008FF90023009300230193144814496422002303F085F90023009300230193114811496422002303F07BF9BD4680BD00BFB4050020C07B00002882FF1F990F000036
:400F4000D87B00003082FF1F2C82FF1F6D0F0000E07B0000CD0F0000E87B00008D100000F07B0000D9100000F87B000080B584B000AF78607B68FB60002003F06BFCFB68FD
:400F80001B685A1CFB681A60FB681B68FE2B02D9002003F05FFCF2E780B584B000AF78607B68FB60002003F099FBB860BB6801330020194603F0ACFBFB681B685A1CFB680E
:400FC0001A600020B96803F0A3FBEFE780B584B000AF78600023BB81284B00221A600023FB811FE0264B1B68184603F033FC234B1B68BB60224B1B68184603F0CFFC8020A7
:4010000003F0FEFA03F050FD1C4B1B68BA689A4201D10123BB8103F055FDFB899BB201339BB2FB81B7F90E30042BDBDD144B1B68184603F00FFC114B00221A60114B1B686E
:40104000184603F0ABFC0D4B1B68FF2B01D00123BB81B7F90C30002B0AD102F0CFFB0A4B1B889BB201339AB2074B1A8002F0DEFB034B1B68184603F091FCADE73082FF1F05
:401080002882FF1F2C82FF1F3482FF1F80B582B000AF786003F008FD0C4B1B6818460C490022002302F022FD0346012B02D0094B01221A6003F006FD802003F0A1FA044B54
:4010C0001B680133024A1360E4E700BFB40500204482FF1F3882FF1F80B584B000AF786003F0E2FC03F0E0FC144B1A6807F10803104619460022002302F000FEF86003F0B2
:40110000E1FC0346002B02D00D4B01221A6003F0D9FCFB68002BE3D0BA680A4B1B689A4202D0074B01221A60054B1B68012B04D0044B1B680133034A1360D1E7B4050020CD
:401140003C82FF1F4082FF1F80B483B000AF01237B60164B1B889AB2154B1B889A4201D100237B60134B1A68134B1B689A4201D100237B60114B1B68012B01D100237B6057
:401180000F4B1B68012B01D100237B60074B1B889AB2074B1A80074B1B68074A13607B6818460C37BD465DF8047B70473482FF1F4882FF1F4082FF1F4C82FF1F3882FF1F1E
:4011C0003C82FF1F80B586B002AF78600023FB600CE07B68009300230193074807496422002303F01DF8FB680133FB60FB68022BEFDD1037BD4680BD01120000007C0000D4
:4012000080B586B000AF786002F0F8FA154B1B687B61144B1B680133124A136002F006FB7B69013340F24D1202FB03F33B613B695B083B6103F0D6FC0346FB6007F10C03F6
:401240001846396903F08CF9786904F001FB07F10C031846396903F083F9786904F0F8FAECE700BF5082FF1F80B584B002AF78607B68009300230193134814496422144BAA
:4012800002F0CEFF7B68009300230193114812496422124B02F0C4FF7B680093002301930F4810496422104B02F0BAFF7B680093002301930D480E4964220E4B02F0B0FF34
:4012C0000837BD4680BD00BFF9120000087C00005482FF1FF1130000107C00005682FF1FE9140000187C00005882FF1F19160000207C00005A82FF1FB0B58EB000AF78602F
:401300000023FB8632A3D3E90023C7E90A2332A3D3E90023C7E9082331A3D3E90023C7E90623D7E90A01D7E9082305F063FF02460B4610461946D7E9062306F00DF90246D5
:401340000B46C7E902237B683B6321A3D3E90023C7E90A2320A3D3E90023C7E9082320A3D3E90023C7E90623D7E90A01D7E9082305F040FF02460B4610461946D7E906232D
:4013800006F0EAF802460B46C7E90423D7E90401D7E9022305F02CFF02460B46144623F000452046294610A3D3E9002306F064FB0346002B01D00123FB86B7F93630002BE9
:4013C00002D13B6B01221A80BFE700BFAFF300805305A3923ADD5E4082E2C7985B53A240B29DEFA7C6B18CC0FCA9F1D24D62503FB0B58EB000AF78600023FB8632A3D3E9EE
:401400000023C7E90A2332A3D3E90023C7E9082331A3D3E90023C7E90623D7E90A01D7E9082306F0C3F902460B4610461946D7E9062306F091F802460B46C7E902237B6822
:401440003B6321A3D3E90023C7E90A2320A3D3E90023C7E9082320A3D3E90023C7E90623D7E90A01D7E9082306F0A0F902460B4610461946D7E9062306F06EF802460B46E5
:40148000C7E90423D7E90401D7E9022305F0B0FE02460B46144623F000452046294610A3D3E9002306F0E8FA0346002B01D00123FB86B7F93630002B02D13B6B01221A801D
:4014C000BFE700BFAFF30080AE47E17A145678C0CDCCCCCC8CBCDF4039D6C56D340000C0FCA9F1D24D62503FF0B58FB000AF78600A23FB6200237B867B68BB62FB6ADB00A7
:40150000184601F051FF78624FF000024FF00003C7E906234FF000024FF00003C7E9042300237B632EE07B6BDB007A6AD618786B05F09CFF02460B46104619464FF00002D8
:40154000334B05F057FE02460B46C6E90023786B05F08CFF02460B46104619464FF000022B4B05F047FE02460B4610461946D7E9062305F03FFE02460B46C7E906237B6BD5
:4015800001337B637A6BFB6A9A42CCD300237B6310E07B6BDB007A6A1344D3E90001D7E9042305F027FE02460B46C7E904237B6B01337B637A6BFB6A9A42EAD3D7E9060197
:4015C000D7E9042305F014FE02460B46C7E90223D7E90223144623F00045204629460AA3D3E9002306F048FA0346002B01D001237B86B7F93230002B02D1BB6A01221A8003
:4016000082E700BFAFF30080FCA9F1D24D62503F00001640AFF30080F0B58FB000AF78600A23FB6200237B867B68BB62FB6ADB00184601F0B9FE78624FF000024FF0000386
:40164000C7E906234FF000024FF00003C7E9042300237B632EE07B6BDB007A6AD618786B05F004FF02460B461046194632A3D3E9002305F071FF02460B46C6E90023786B05
:4016800005F0F4FE02460B46104619462AA3D3E9002305F061FF02460B4610461946D7E9062305F0A7FD02460B46C7E906237B6B01337B637A6BFB6A9A42CCD300237B63F4
:4016C00010E07B6BDB007A6A1344D3E90001D7E9042305F08FFD02460B46C7E904237B6B01337B637A6BFB6A9A42EAD3D7E90601D7E9042305F07CFD02460B46C7E9022304
:40170000D7E90223144623F00045204629460CA3D3E9002306F0B0F90346002B01D001237B86B7F93230002B02D1BB6A01221A8082E700BFAFF30080E5D022DBF93E284019
:40174000FCA9F1D24D62503F80B483B000AF01237B6000233B6011E00D4A3B6832F813309BB2012B02D000237B6004E0084A3B68002122F813103B6801333B603B68032BD5
:40178000EADD7B6818460C37BD465DF8047B70475482FF1F80B586B002AF786005200421002202F011F9F860FB68002B0DD0F8681C4902F00DFD7B680093002301931A48ED
:4017C0001A496422FB6802F02BFD012002F060F9B860BB68002B21D0B868154902F0F8FC0023009300230193124813496422BB6802F016FD02230093104B01931048114932
:401800006422002302F00CFD032300930E4B01930E480F496422BB6802F002FD1037BD4680BD00BF287C000055180000387C0000407C0000AD1D0000507C00007082FF1FA9
:40184000ED1D0000587C00006C82FF1F0D1E0000607C000080B586B000AF78607B687B617869AA490022012302F040F9786902F077FB0346012B02D0A54B01221A6007F170
:401880001003786919460022002302F037FA0346012B02D09E4B01221A609C4B1A683B699A4202D09A4B01221A60786902F058FB0346002B02D0964B01221A6078699349BC
:4018C0000022002302F012F9786902F049FB0346012B02D08E4B01221A6007F11003786919460022002302F009FA0346012B02D0874B01221A60786902F032FB0346002B23
:4019000002D0834B01221A60804B1A683B699A4202D07F4B01221A6002233B610AE007F11003786919460022002302F0DFF83B6901333B613B69042BF1D9786902F010FB71
:401940000346032B02D0724B01221A6001233B6107F11003786919460022012302F0C6F800233B6107F11003786919460022012302F0BCF8786902F0F3FA0346052B02D0C2
:40198000634B01221A6007F11003786919460022012302F0ABF80346002B02D05C4B01221A6007F11003786919460022002302F09DF80346002B02D0554B01221A6000236F
:4019C0003B612FE007F10C03786919460022012302F094F90346012B02D04D4B01221A603A69FB689A4202D0494B01221A60FB68DB43FB6007F10C03786919460022002367
:401A000002F07CF90346012B02D0414B01221A603A69FB689A4202D03D4B01221A603B6901333B613B69042BCCD9786902F098FA0346002B02D0364B01221A600A233B6178
:401A400007F11003786919460022002302F04EF80346012B02D02E4B01221A600B233B6107F11003786919460022002302F03EF80346012B02D0264B01221A60786902F097
:401A80006FFA0346022B02D0214B01221A6009233B6110E007F11003786919460022012302F024F80346012B02D0194B01221A603B69013B3B613B69062BEBD8786902F0E6
:401AC0004FFA0346052B02D0114B01221A6007F11003786919460022012302F007F80346002B02D00A4B01221A6007F11003786919460022002301F0F9FF0346002B02D0E0
:401B0000034B01221A6007233B611BE06082FF1F5C82FF1F07F10C03786919460022002302F0ECF80346012B02D00F4B01221A603A69FB689A4202D00B4B01221A603B6912
:401B400001333B613B690B2BE4D9786902F008FA0346002B02D0044B01221A60034B1B680133024A13607BE65C82FF1F6082FF1F80B582B000AF786039607868002100222C
:401B8000002302F0BBF80346012B02D0404B01221A60404B00221A60002002F09FFD0346002B02D03A4B01221A603B4B1B68184602F0F4FE002002F091FD0346032B02D07D
:401BC000334B01221A600020012102F0A1FD002002F084FD0346032B02D02D4B01221A602E4B1B68184602F0D9FE2A4B1B68002B02D0274B01221A603868002100220023DA
:401C000002F07CF80346012B02D0214B01221A60786800210022002301F068FF0346012B02D01B4B01221A601A4B1B68002B02D0174B01221A60002002F050FD0346032B4C
:401C400002D0134B01221A60386800210022002301F04CFF0346012B02D00D4B01221A600C4B1B68012B02D0094B01221A60002002F034FD0346012B02D0054B01221A60D9
:401C80000020002102F044FD0837BD4680BD00BF5C82FF1F6882FF1F6C82FF1F7082FF1F80B582B000AF78603960786800210022002302F023F80346012B02D0374B01228C
:401CC0001A60374B00221A60002002F007FD0346002B02D0314B01221A60324B1B68184602F05CFE002002F0F9FC0346032B02D02A4B01221A602C4B1B68184602F04EFE35
:401D0000274B1B68002B02D0244B01221A60386800210022002301F0F1FF0346012B02D01E4B01221A60386800210022002301F0DDFE0346012B02D0184B01221A60184BF5
:401D40001B68002B02D0154B01221A60002002F0C5FC0346032B02D0104B01221A60786800210022002301F0C1FE0346012B02D00A4B01221A600A4B1B68012B02D0074B7B
:401D800001221A60002002F0A9FC0346002B02D0024B01221A600837BD4680BD5C82FF1F6882FF1F6C82FF1F7082FF1F80B584B000AF78607B68FB60012001F069FEB86041
:401DC000F868B968FFF7D4FE074B1B680133064A1360F868B968FFF763FF034B1B680133014A1360ECE700BF6482FF1F80B582B000AF7860002002F02DFD034B1B6801336D
:401E0000014A1360F6E700BF6882FF1F80B584B000AF78607B68FB60002002F01BFDF86800214FF0FF32002301F068FF0346012B02D0084B01221A60F8680021002200237F
:401E400001F054FE0346012B02D0024B01221A60E2E700BF5C82FF1F80B400AF124B1A68124B1B689A4202D1114B01221A60114B1A68114B1B689A4202D10D4B01221A60BF
:401E80000A4B1B68084A13600B4B1B68094A1360074B1B68002B0CBF01230023DBB21846BD465DF8047B70477482FF1F6082FF1F5C82FF1F7882FF1F6482FF1F90B587B0B3
:401EC00002AF78600023FB8113E0B7F90E309B000B4A9C187B6800930023019309480A496422234602F09CF9FB899BB201339BB2FB81B7F90E30002BE7DD1437BD4690BDA8
:401F00007C82FF1F0D1F0000687C000080B586B000AF78600023FB827B683B617B23FB60FB6803F565334733FB60FB681A469B00D31AFB60FB680D4A82FB03121A449210B1
:401F4000DB17D31AFB60FB68094A934201D00123FB82B7F91630002B06D101F04FFC3B6901221A6001F062FCD8E700BF932449921B77FEFF80B483B000AF01237B6000238F
:401F80007B8013E0B7F902300E4A52F82330002B01D100237B60B7F902300A4A002142F823107B889BB201339BB27B80B7F90230002BE7DD7B6818460C37BD465DF8047BA5
:401FC000704700BF7C82FF1F80B582B002AF032300932C4B01932C482C496422012302F01FF9032300932A4B0193274829496422022302F015F900230093002301932648AD
:4020000026496422002302F00BF903230093244B0193244824496422012302F001F903230093224B0193224822496422022302F0F7F800230093002301931F481F4964228A
:40204000002302F0EDF80A200421002201F0BCFC02461B4B1A600A200421002201F0B4FC0246184B1A60164B1B681846164902F0AFF8144B1B681846144902F0A9F8BD4680
:4020800080BD00BFC005002071210000707C0000B8050020787C0000E5220000807C0000BC0500209D230000887C0000C4050020ED240000907C00009D250000987C00006C
:4020C0008482FF1F8082FF1FA07C0000B07C000080B582B000AF786039607B68C72B10D8094A7B6813441B78002B03D040F2111000F02AF83B68D9B2034A7B6813440A4688
:402100001A700837BD4680BD7083FF1F80B582B000AF786039607B68C72B10D8094A7B6813441B78002B03D04FF4917000F00CF83B68D9B2034A7B6813440A461A7008371D
:40214000BD4680BDA882FF1F80B483B000AF7860054A7B681360054B00221A600C37BD465DF8047B704700BF9882FF1F1081FF1F80B58AB000AF786000237B6100233B612D
:402180007B68012B01D103F03DF9504B1A6807F10C03104619468C22002301F0AFFD0346012B04D040F24510FFF7CEFF05E0FA687B6810461946FFF7A9FF454B4FF080521D
:4021C0001A60BFF34F8FBFF36F8F7B68012B7BD1404B1B68FA2B77D93F4B1B68184602F039FB00233B620023FB610023BB6101237B622AE0394A7B6A13441B78002B04D1DB
:402200004FF4B270FFF7A0FF1CE0344A7B6A13441B78012B03D13B6A01333B6212E02F4A7B6A13441B78022B03D1FB690133FB6108E02A4A7B6A13441B78052B02D1BB6964
:402240000133BB617B6A01337B627B6AC72BD1D93B6A042B0AD87B6901337B617B69022B06D940F27F10FFF76FFF01E000237B61FB69042B0AD83B6901333B613B69022B3E
:4022800006D940F28D10FFF75FFF01E000233B61BB69002B03D140F29710FFF755FF0F480021C82205F029FC0D4B1B6801330C4A1360084B00221A60002002F0CBFA064BCB
:4022C0001B68184602F06AFB5FE700BF8082FF1F04ED00E0A082FF1FB8050020A882FF1F8882FF1F80B584B000AF7860274B1A6807F10803104619460122002301F0FEFC56
:402300000346002B1BD0224B1B68184602F09AF90346032B03D040F2BD10FFF715FFBB6818460321FFF7F2FE194B1B68184602F035FB184B1B680133164A136025E0002014
:40234000042102F0E5F901F059FA134B1B680133114A1360104B1B68FB6001F067FA0B4B1A6807F10C03104619464FF0FF32002301F0BCFB0346012B03D040F2D510FFF792
:40238000E3FE0020002102F0C3F9AFE78082FF1FC00500209082FF1FA082FF1F80B586B000AF786000237B6118E001F027FA484B1B680133464A1360454B1B68FB6001F09B
:4023C00035FA444B1A6807F10C03104619468C22002301F08BFB7B6901337B617B69042BE3D901F00BFA3A4B1B680133384A1360374B1B68FB6001F019FA364B1A6807F150
:402400000C03104619468C22002301F06FFB0346012B03D04FF40070FFF796FE2E4B4FF080521A60BFF34F8FBFF36F8FFB68FA2B4DD98C2002F0E4F8284B1B68184602F075
:4024400009FA274B1B68012B03D140F21320FFF77BFE234B01221A6000233B6101237B6116E0204A7B6913441B78002B04D140F22320FFF769FE08E01A4A7B6913441B78AC
:40248000052B02D13B6901333B617B6901337B617B69C72BE5D93B69002B03D140F22F20FFF752FE0F480021C82205F026FB0E4B1B6801330C4A1360054B00221A60002056
:4024C00002F0C8F9054B1B68184602F067FA88E7A482FF1F8482FF1F04ED00E0C40500209C82FF1F7083FF1F8C82FF1F80B584B000AF78600023FB6018E001F07FF9234B5E
:402500001B680133214A1360204B1B68BB6001F08DF91F4B1A6807F10803104619468C22002301F0E3FAFB680133FB60FB68042BE3D901F063F9154B1B680133134A1360CF
:40254000124B1B68BB6001F071F9114B1A6807F10803104619468C22002301F0C7FA0346012B07D00B4B1B68012B03D04FF41A70FFF7EAFD074B00221A60074B4FF08052CD
:402580001A60BFF34F8FBFF36F8FD2E7A482FF1F8482FF1F9C82FF1F04ED00E080B584B000AF786042F20F73BB60224B1A6807F10803104619460122002301F097FA0346BA
:4025C000002B16D01C4B1B68184602F03BF80346032B03D040F28120FFF7B6FD164B1B68184602F0DBF9154B1B680133134A13601FE00020042102F08BF80E4B1A6807F11C
:402600000C03104619464FF0FF32002301F076FB0346012B04D040F28F20FFF795FD04E0FB6818460321FFF753FD0020002102F06FF8BAE78482FF1FBC0500209482FF1FAC
:4026400080B58EB000AF00237B606C4B1B6801336A4A1360694B1B6803F00103002B00F09480674B1B68184601F09CFD0346012B28D0EFF311824FF0A00383F31188BFF3A6
:402680006F8FBFF34F8FBA627B62BB6A7B635D4B1B6801335B4A1360594B1A683B1D104658491A46002301F0CFFA0346012B04D0544B1B68013B534A13607B6B3B623B6A88
:4026C00083F311884E4B1B68184601F06BFD0346012B28D0EFF311824FF0A00383F31188BFF36F8FBFF34F8FFA61BB61FB693B63444B1B680133434A1360414B1A683B1DC0
:40270000104640491A46002301F09EFA0346012B04D03C4B1B68013B3A4A13603B6B7B617B6983F31188364B1B68184601F03AFD0346012B5CD0EFF311824FF0A00383F3BB
:402740001188BFF36F8FBFF34F8F3A61FB603B69FB622C4B1B6801332A4A1360284B1A683B1D104627491A46002301F06DFA0346012B04D0234B1B68013B224A1360FB6ACC
:40278000BB60BB6883F3118832E01F4B19683A463B1D084611461A4601F08CFB0346012B04D13B6818460521FFF792FC164B19683A463B1D084611461A4601F07BFB034616
:4027C000012B04D13B6818460521FFF781FC0E4B19683A463B1D084611461A4601F06AFB0346012B04D13B6818460521FFF770FC7B6818463837BD4680BD00BF3884FF1FD5
:402800008082FF1FA082FF1F8482FF1F80B596B000AF00233B60A24B1B680133A04A13609F4B1B6803F00103002B00F08F809D4B1B68184601F0B6FC0346012B28D0EFF3E2
:4028400011824FF0A00383F31188BFF36F8FBFF34F8F3A64FB633B6C7B65934B1B680133914A13608F4B1A683B4610468E491A46002301F0E9F90346012B04D08A4B1B682D
:40288000013B894A13607B6DBB63BB6B83F31188844B1B68184601F085FC0346012B28D0EFF311824FF0A00383F31188BFF36F8FBFF34F8F7A633B637B6B3B657A4B1B68DD
:4028C0000133794A1360774B1A683B46104676491A46002301F0B8F90346012B04D0724B1B68013B704A13603B6DFB62FB6A83F311886C4B19683A1D3B46084611461A46EF
:4029000001F0D8FA0346012B04D04FF43270FFF71BFC04E07B6818460521FFF7F7FB614B19683A1D3B46084611461A4601F0C2FA0346012B04D040F2C920FFF705FCA9E0CB
:402940007B6818460521FFF7E1FBA3E0574B19683A1D3B46084611461A4601F0ABFA0346012B04D17B6818460521FFF7B1FB4F4B1B68184601F016FC0346012B28D0EFF3E5
:4029800011824FF0A00383F31188BFF36F8FBFF34F8FBA627B62BB6AFB64454B1B680133434A1360414B1A683B46104640491A46002301F049F90346012B04D03C4B1B6818
:4029C000013B3B4A1360FB6C3B623B6A83F31188364B1B68184601F0E5FB0346012B28D0EFF311824FF0A00383F31188BFF36F8FBFF34F8FFA61BB61FB69BB642C4B1B68B1
:402A000001332B4A1360294B1A683B46104628491A46002301F018F90346012B04D0244B1B68013B224A1360BB6C7B617B6983F311881E4B1B68184601F0B4FB0346012B0C
:402A400028D0EFF311824FF0A00383F31188BFF36F8FBFF34F8F3A61FB603B697B64144B1B680133124A1360104B1A683B4610460F491A46002301F0E7F80346012B04D0B2
:402A80000B4B1B68013B0A4A13607B6CBB60BB6883F311883B6818465837BD4680BD00BF3C84FF1F8082FF1FA082FF1F8482FF1FA482FF1F80B500AF1D4B1A681D4B1B6818
:402AC0009A4203D140F2E220FFF73EFB184B1B68184A1360184B1A68184B1B689A4203D140F2EA20FFF730FB134B1B68134A1360134B1A68134B1B689A4203D140F2F220CA
:402B0000FFF722FB0E4B1B680E4A13600E4B1A680E4B1B689A4203D140F2FA20FFF714FB094B1B68094A1360094B1B68184680BD8882FF1F4084FF1F8C82FF1F4484FF1FF8
:402B40009082FF1F4884FF1F9482FF1F4C84FF1F1081FF1F80B584B002AF78600A200221002200F031FF0246114B1A60104B1B68002B19D00E4B1B6818460E4901F028FB34
:402B80007B680093002301930B480C496422084B01F046FB7B68009300230193084809496422034B01F03CFB0837BD4680BD00BF5884FF1FC07C0000392C0000D07C000045
:402BC000C92B0000D87C000080B586B000AF78600023FB8100237B6100233B6122E07B681A6807F10E03104619460022002300F07DFF0346012B02D001237B610FE07B694E
:402C0000002B08D100F0FAFD0A4B1B680133094A136000F00BFEFB8901339BB2FB813B6901333B613B69022BD9DDC82001F0E8FCD2E700BF5484FF1F80B586B000AF786045
:402C40000023FB8200233B6124E07B681A6807F10E03104619460022002301F04FF80346012B17D1FB89FA8A9A4204D001233B61FB89FB820BE03B69002B08D100F0BEFD3D
:402C80000A4B1B680133094A136000F0CFFDFB8A0133FB827B681B68184601F061F90346002BD2D1B42001F0ABFCCDE75084FF1F80B483B000AF0D4B1B68002B03D00C4BD2
:402CC0001B68002B02D100237B6001E001237B60064B00221A60064B00221A607B6818460C37BD465DF8047B704700BF5084FF1F5484FF1F80B584B002AF0520042100225C
:402D000000F062FE78607B68002B2BD07868174901F05EFA00230093002301931448154964227B6801F07CFA01230093124B01931248134964227B6801F072FA0223009306
:402D4000104B01931048114964227B6801F068FA032300930E4B01930E480F4964227B6801F05EFA0837BD4680BD00BFE07C0000952F0000F47C0000CC0500202D2F0000D5
:402D8000FC7C0000C80500209D2E0000047D0000D00500209D2D00000C7D000080B584B000AF78607B68FB6007F10803F86819464FF0FF32012300F0A1FF0346012B02D0BF
:402DC000324B01221A60BB68314A934202D02F4B01221A60F86801F0C3F80346012B02D02A4B01221A600023BB6007F10803F86819460022002300F081FF0346012B02D0FC
:402E0000224B01221A60BB68214A934202D01F4B01221A6007F10803F86819464FF0FF32012300F06BFF0346012B02D0174B01221A60BB68174A934202D0144B01221A602F
:402E4000F86801F08DF80346012B02D00F4B01221A60002001F0FEFC07F10803F86819464FF0FF32012300F049FF0346012B02D0064B01221A60BB68074A934202D0034B07
:402E800001221A60002001F0E5FC8DE75C84FF1F4433221167452301BBAABBAA80B584B000AF78607B68FB6007F10803F86819464FF0FF32012300F021FF0346012B02D0F2
:402EC000174B01221A60BB68164A934202D0144B01221A60F86801F043F80346012B02D00F4B01221A60002001F0B4FC07F10803F86819464FF0FF32002300F0FFFE034697
:402F0000012B02D0064B01221A60BB68064A934202D0034B01221A60002001F09BFCC3E75C84FF1F67452301BBAABBAA80B584B000AF78607B68FB6007F10803F8681946C6
:402F40004FF0FF32012300F0D9FE0346012B02D00D4B01221A60BB680C4A934202D00A4B01221A60F86800F0FBFF0346012B02D0054B01221A60064B1B680133044A136061
:402F8000002001F067FCD7E75C84FF1F674523016084FF1F80B584B000AF78607B68FB603B4BBB6007F10803F86819460022002300F09CFD0346012B02D0364B01221A604B
:402FC000F86800F0CDFF0346002B02D0314B01221A60314BBB6007F10803F86819460022002300F083FD0346012B02D0294B01221A600023BB6007F10803F86819460022CE
:40300000002300F07BFE0346012B02D0214B01221A600A2001F0F4FA204B1B68184601F0BDFC1F4B1B68184601F0B8FC1D4B1B68184601F0B3FC1C4BBB6007F10803F868F7
:4030400019460022012300F051FD0346012B02D0104B01221A6007F10803F86819460022012300F04BFE0346002B02D0094B01221A600B4B1B68184601F090FC094B1B682B
:40308000184601F08BFC0A2001F0BAFA88E700BF443322115C84FF1F67452301CC050020C8050020D0050020BBAABBAA80B400AF0C4B1A680C4B1B689A4202D10B4B01226A
:4030C0001A60094B1B68074A1360084B1B68002B0CBF01230023DBB21846BD465DF8047B704700BF6484FF1F6084FF1F5C84FF1F80B588B002AF786064237B610C2000F0F5
:4031000053F938613B69002B3AD001200021032200F05AFC02463B691A603B691B68002B2ED03B691B68184600210022002300F0DDFC042000F038F902463B695A603B692B
:403140005B68FF221A603B6900229A6000230093002301932D482E4964223B6901F060F8002300930023019328482A4964223B6901F056F83B691B681846274901F028F8A6
:403180000C2000F011F9F860FB68002B3BD001200021032200F018FC0246FB681A60FB681B68002B2FD0FB681B68184600210022002300F09BFC042000F0F6F80246FB687A
:4031C0005A60FB685B6840F6FF721A60FB687A699A607B680093002301930C480F496422FB6801F01DF87B6800930023019307480B496422FB6801F013F8FB681B681846CD
:40320000084900F0E5FF1837BD4680BD29320000147D00001C7D0000247D0000347D00003C7D0000447D000080B588B000AF786000237B8300F0E2FA3F4B1B883B833E4B34
:403240001B889BB29BB29BB201339BB29AB23A4B1A8000F0EBFA7B687B617B695B683B617B699B68002B03D040F6FF73FB6001E0FF23FB607B691A687B699B6810460021F7
:403280001A46002300F03AFD0346012B47D13B691A68FB689A4201D001237B830023FB610CE03B69FA691A603B691A68FB699A4201D001237B83FB690133FB61FB68FA6980
:4032C0009A42EED97B691B68184600210022002300F00CFC0346002B01D101237B83B7F91A30002B11D1B7F91830032B0DDCB7F91820124B33F812309BB29BB29BB20133BD
:403300009BB299B20D4B23F812107B699A6813469B0013445B00184601F072F90BE07B699B68002B07D1064B4FF080521A60BFF34F8FBFF36F8F9DE77084FF1F6884FF1F89
:4033400004ED00E080B483B000AF01233B6000237B601AE0124A7B6832F81310114A7B6832F813309BB20AB21BB29A4201D100233B600C4A7B6832F8133099B2084A7B6810
:4033800022F813107B6801337B607B68032BE1DD3B6818460C37BD465DF8047B704700BF7484FF1F6884FF1F80B588B000AF786000237B6101F078FB404B1B68002B04D1F9
:4033C00000F0BCF83D4B01221A607B68002B0ED008231A467B6813447B607B6803F00703002B04D07B6823F0070308337B607B68002B57D07B6847F6F772934252D8304B4B
:40340000BB612F4B1B68FB6104E0FB69BB61FB691B68FB61FB695A687B689A4203D2FB691B68002BF1D1FB69264A93423AD0BB691B68082213447B61FB691A68BB691A60A7
:40344000FB695A687B68D31A08225200934222D9FA697B681344FB60FB695A687B68D21AFB685A60FB697A685A60FB685B68BB60134B3B6102E03B691B683B613B691B68F9
:403480005A68BB689A42F6D33B691A68FB681A603B69FA681A600C4B1A68FB695B68D31A094A136001F00EFB7B69002B01D102F059F97B6918462037BD4680BD8C040020A4
:4034C0007C040020840400201481FF1F80B586B000AF78607B683B617B68002B27D008235B423A6913443B613B69FB6001F0DCFAFB685B68BB600F4B7B6102E07B691B6877
:403500007B617B691B685A68BB689A42F6D37B691A68FB681A607B69FA681A60FB685A68054B1B681344044A136001F0CBFA1837BD4680BD7C0400201481FF1F80B483B0AC
:4035400000AF0F4B23F007037B600E4A7B6813600C4B00225A600C4B47F6F8725A600A4B00221A607B683B603B6847F6F8725A603B68054A1A600C37BD465DF8047B704701
:403580008484FF1F7C0400208404002080B483B000AF78607B6803F108027B685A607B684FF0FF329A607B6803F108027B68DA607B6803F108027B681A617B6800221A6028
:4035C0000C37BD465DF8047B704700BF80B483B000AF78607B6800221A610C37BD465DF8047B704780B485B000AF786039607B685B68FB603B68FA685A60FB689A683B68AB
:403600009A60FB689B683A685A60FB683A689A603B687A681A617B681B685A1C7B681A601437BD465DF8047B704700BF80B485B000AF786039603B681B68BB60BB68B3F16D
:40364000FF3F03D17B681B69FB600CE07B680833FB6002E0FB685B68FB60FB685B681A68BB689A42F6D9FB685A683B685A603B685B683A689A603B68FA689A60FB683A68B0
:403680005A603B687A681A617B681B685A1C7B681A601437BD465DF8047B704780B485B000AF78607B681B69FB607B685B687A6892689A607B689B687A6852685A60FB6871
:4036C0005A687B689A4203D17B689A68FB685A607B6800221A61FB681B685A1EFB681A60FB681B6818461437BD465DF8047B704780B485B000AFF860B9607A60FB68043B96
:40370000FB60FB684FF080721A60FB68043BFB60BB6823F00102FB681A60FB68043BFB60094AFB681A60FB68143BFB607A68FB681A60FB68203BFB60FB6818461437BD46EC
:403740005DF8047B704700BF4D37000080B483B000AF4FF0A00383F31188BFF36F8FBFF34F8F7B60FEE700BF0000000000000000074B19680868B0E8F00F80F30988BFF325
:403780006F8F4FF0000080F311884EF00D0E704790040020AFF30080AFF30080AFF3008006480068006880F3088862B661B6BFF34F8FBFF36F8F00DF00BF000008ED00E093
:4037C00080B500AF0B4A0B4B1B6843F460031360084A084B1B6843F06043136000F088F8054B00221A60FFF7DBFFFFF7AFFF0023184680BD20ED00E01881FF1F80B483B0A0
:4038000000AF4FF0A00383F31188BFF36F8FBFF34F8F7B60044B1B680133034A13600C37BD465DF8047B70471881FF1F80B483B000AF094B1B68013B074A1360064B1B68BE
:40384000002B04D100237B607B6883F311880C37BD465DF8047B70471881FF1F00000000EFF30980BFF36F8F0D4B1A6820E9F00F10602DE908404FF0A00080F3118801F029
:403880007BFA4FF0000080F31188BDE8084019680868B0E8F00F80F30988BFF36F8F704790040020AFF30080AFF30080AFF3008080B582B000AF4FF0A00383F31188BFF395
:4038C0006F8FBFF34F8F7B6001F0A8F90346002B03D0064B4FF080521A6000233B603B6883F311880837BD4680BD00BF04ED00E080B400AF054B4BF67F321A60044B072214
:403900001A60BD465DF8047B704700BF14E000E010E000E080B584B000AF786039607B68FB60FFF76BFFFB681A68FB68DB6BF968096C01FB03F31A44FB685A60FB6800229F
:403940009A63FB681A68FB689A60FB681A68FB68DB6B013BF968096C01FB03F31A44FB68DA60FB68FF2283F84420FB68FF2283F845203B68002B14D1FB681B69002B1AD005
:40398000FB681033184601F077FA0346002B12D00C4B4FF080521A60BFF34F8FBFF36F8F09E0FB6810331846FFF7F0FDFB6824331846FFF7EBFDFFF739FF0123184610376C
:4039C000BD4680BD04ED00E090B58BB002AFF860B9601346FB71BB68002B02D10023FB6104E0FB68BA6802FB03F3FB61FB6948331846FFF7D9FCB861BB69002B0BD0BB6988
:403A000048337B61FC79BB690093F868B9687A69234600F005F8BB6918462437BD4690BD80B584B000AFF860B9607A60FB70BB68002B03D1BB69BA691A6002E0BB697A6883
:403A40001A60BB69FA68DA63BB69BA681A64B8690121FFF75FFF1037BD4680BD80B582B000AF78607B68002B0ED07B6800225A607B6800221A607B680022DA6078680021CF
:403A80000022002300F032F80837BD4680BD00BF80B586B000AF0346FB7101237B6100233B61FB79786939691A46FFF78DFFF860F868FFF7D3FFFB6818461837BD4680BD32
:403AC00080B584B000AF78603960786800210222FFF77AFFF860FB68002B02D0FB683A689A63FB6818461037BD4680BD80B58AB000AFF860B9607A603B6000237B62FB6840
:403B00003B62FFF77BFE3B6A9A6B3B6ADB6B9A4202D33B68022B29D1386AB9683A6800F02FFAF8613B6A5B6A002B10D03B6A2433184601F0A1F90346002B13D0414B4FF016
:403B400080521A60BFF34F8FBFF36F8F0AE0FB69002B07D03B4B4FF080521A60BFF34F8FBFF36F8FFFF762FE012367E07B68002B03D1FFF75BFE002360E07B6A002B06D1DC
:403B800007F11403184601F0CDF901237B62FFF74DFE00F089FFFFF731FE3B6A93F84430DBB25BB2B3F1FF3F03D13B6A002283F844203B6A93F84530DBB25BB2B3F1FF3F47
:403BC00003D13B6A002283F84520FFF72FFE07F114023B1D1046194601F0BAF90346002B24D1386A00F0C6FA0346002B18D03B6A03F110027B681046194601F027F9386A5B
:403C000000F050FA00F05EFF0346002B15D10D4B4FF080521A60BFF34F8FBFF36F8F0CE0386A00F03FFA00F04DFF6AE7386A00F039FA00F047FF002300E062E71846283738
:403C4000BD4680BD04ED00E080B58CB000AFF860B9607A603B60FB68BB62EFF311824FF0A00383F31188BFF36F8FBFF34F8FFA61BB61FB697B62BB6A9A6BBB6ADB6B9A42DE
:403C800002D33B68022B2CD1BB6A93F8453087F82330B86AB9683A6800F072F997F92330B3F1FF3F12D1BB6A5B6A002B16D0BB6A2433184601F0E0F80346002B0ED07B68B0
:403CC000002B0BD07B6801221A6007E097F823300133DBB2DAB2BB6A83F845200123FB6201E00023FB627B6A7B617B6983F31188FB6A18463037BD4680BD00BF80B58AB0F5
:403D000000AFF860B9607A603B6000237B62FB683B62FFF773FD3B6A9B6BFB61FB69002B46D03B6ADB68BB61386AB96800F094F93B68002B21D1FB695A1E3B6A9A633B6AB5
:403D40001B68002B04D101F0E5FA02463B6A5A603B6A1B69002B27D03B6A1033184601F08BF80346002B1FD0514B4FF080521A60BFF34F8FBFF36F8F16E03B6ABA69DA6082
:403D80003B6A5B6A002B0FD03B6A2433184601F073F80346002B07D0454B4FF080521A60BFF34F8FBFF36F8FFFF740FD01237AE07B68002B03D1FFF739FD002373E07B6A19
:403DC000002B06D107F11003184601F0ABF801237B62FFF72BFD00F067FEFFF70FFD3B6A93F84430DBB25BB2B3F1FF3F03D13B6A002283F844203B6A93F84530DBB25BB275
:403E0000B3F1FF3F03D13B6A002283F84520FFF70DFD07F110023B1D1046194601F098F80346002B31D1386A00F08EF90346002B25D03B6A1B68002B08D1FFF7DFFC3B6AF3
:403E40005B68184601F088F9FFF7F0FC3B6A03F124027B681046194600F0F8FF386A00F021F900F02FFE0346002B1BD1104B4FF080521A60BFF34F8FBFF36F8F12E0386AAC
:403E800000F010F900F01EFE43E7386A00F00AF900F018FE386A00F057F90346002B01D0002300E035E718462837BD4680BD00BF04ED00E080B58CB000AFF860B9607A60FA
:403EC000FB68BB62EFF311824FF0A00383F31188BFF36F8FBFF34F8FBA617B61BB697B62BB6A9B6B3B623B6A002B2DD0BB6A93F84430FB77B86AB96800F0AEF83B6A5A1E83
:403F0000BB6A9A6397F91F30B3F1FF3F12D1BB6A1B69002B15D0BB6A1033184600F0ACFF0346002B0DD07B68002B0AD07B6801221A6006E0FB7F0133DBB2DAB2BB6A83F89B
:403F400044200123FB6201E00023FB627B6A3B613B6983F31188FB6A18463037BD4680BD80B584B000AF7860FFF748FC7B689B6BFB60FFF75BFCFB6818461037BD4680BD5A
:403F800080B586B000AFF860B9607A6000237B61FB689B6B3B61FB681B6C002B0DD1FB681B68002B4FD1FB685B68184601F04CF97861FB6800225A6045E07B68002B1AD184
:403FC000FB689A68FB681B6C1046B9681A4603F089FDFB689A68FB681B6C1A44FB689A60FB689A68FB685B689A422CD3FB681A68FB689A6027E0FB68DA68FB681B6C104684
:40400000B9681A4603F06EFDFB68DA68FB681B6C5B421A44FB68DA60FB68DA68FB681B689A4207D2FB685A68FB681B6C5B421A44FB68DA607B68022B05D13B69002B02D00C
:404040003B69013B3B613B695A1CFB689A637B6918461837BD4680BD80B582B000AF786039607B681B6C002B19D07B68DA687B681B6C1A447B68DA607B68DA687B685B689F
:404080009A4203D37B681A687B68DA607B68DA687B681B6C386811461A4603F023FD0837BD4680BD80B584B000AF7860FFF7A6FB7B6893F84530FB7313E07B685B6A002BB6
:4040C0000AD07B682433184600F0D6FE0346002B03D000F081FF00E007E0FB7B013BDBB2FB7397F90F30002BE7DC7B68FF2283F84520FFF79BFBFFF781FB7B6893F84430DE
:40410000BB7313E07B681B69002B0ED07B681033184600F0B1FE0346002B01D000F05CFFBB7B013BDBB2BB7300E003E097F90E30002BE7DC7B68FF2283F84420FFF776FB45
:404140001037BD4680BD00BF80B584B000AF7860FFF754FB7B689B6B002B02D10123FB6001E00023FB60FFF761FBFB6818461037BD4680BD80B584B000AF7860FFF73EFB46
:404180007B689A6B7B68DB6B9A4202D10123FB6001E00023FB60FFF749FBFB6818461037BD4680BD80B485B000AF78607B689A6B7B68DB6B9A4202D10123FB6001E00023AC
:4041C000FB60FB6818461437BD465DF8047B704780B485B000AF786039600023FB6014E00E4AFB6852F83330002B0BD10B49FB683A6841F83320094AFB68DB0013447A68B1
:404200005A6005E0FB680133FB60FB68092BE7D91437BD465DF8047B704700BFD405002080B58CB004AFF860B9603B601346FB80FB889B001846FFF7B7F878617B69002BF8
:404240000ED05020FFF7B0F8F861FB69002B03D0FB697A691A6305E07869FFF737F901E00023FB61FB69002B11D0FA88BB6A0093FB6A0193FB690293F868B9683B6800F0D7
:404280000FF8F86900F082F80123BB6102E04FF0FF33BB61BB6918462037BD4680BD00BF80B586B000AFF860B9607A603B60BB6A1A6B7B689B001046A5211A4603F01DFCF5
:4042C000BB6A1A6B7B6803F18043013B9B0013443B613B6923F007033B6100237B6113E0BA687B6913441978BA6A7B69134430330A461A71BA687B6913441B78002B00D1EA
:4043000005E07B6901337B617B690B2BE8D9BB6A002283F83F203B6A042B01D904233B62BB6A3A6ADA62BB6A3A6A1A64BB6A00225A64BB6A04331846FFF748F9BB6A183384
:404340001846FFF743F9BB6ABA6A1A613B6AC3F10502BB6A9A61BB6ABA6A5A62BB6A00229A64BB6A002283F84C203869F9683A68FFF7BEF90246BB6A1A607B6A002B02D0D7
:404380007B6ABA6A1A601837BD4680BD80B582B000AF7860FFF732FA2B4B1B6801332A4A13602A4B1B68002B09D1284A7B681360254B1B68012B10D100F022FE0DE0244B96
:4043C0001B68002B09D1214B1B68DA6A7B68DB6A9A4202D81D4A7B6813601E4B1B6801331C4A13607B68DB6A1A46012303FA02F2194B1B681343184A13607B68DA6A13463F
:404400009B0013449B00154A1A447B68043310461946FFF7E7F8FFF709FA0D4B1B68002B0ED00A4B1B68DA6A7B68DB6A9A4207D20B4B4FF080521A60BFF34F8FBFF36F8F97
:404440000837BD4680BD00BF68050020900400207405002084050020700500209404002004ED00E080B584B000AF7860FFF7C6F97B68002B02D1314B1B6800E07B68FB60BA
:40448000FB6804331846FFF709F90346002B15D1FB68DA6A2A4913469B0013449B000B441B68002B0AD1FB68DB6A1A4601239340DA43244B1B681340224A1360FB689B6A32
:4044C000002B04D0FB6818331846FFF7E7F81E4B1B6801331C4A1360184B1B68FA689A420BD1FB68043319481946FFF77BF8184B1B680133164A136009E0164B1B68013B2A
:40450000144A1360F86800F0F3FD00F001FEFFF78DF9114B1B68002B0CD0084B1B68FA689A4207D10D4B4FF080521A60BFF34F8FBFF36F8F1037BD4680BD00BF9004002010
:404540009404002070050020840500203C05002050050020680500207405002004ED00E080B586B000AF7860396000237B6100F09BFA214B1B683B617B681A683B6813447F
:40458000FB607B681A683B699A420BD97B681A68FB689A4211D9FA683B699A420DD901237B610AE07B681A68FB689A4203D8FA683B699A4201D901237B617B68FA681A609D
:4045C0007B69002B06D0FA683B69D31A1846002100F0B4FE00F076FAB860BB68002B07D1064B4FF080521A60BFF34F8FBFF36F8F1837BD4680BD00BF6C05002004ED00E058
:4046000080B584B000AF78600023FB607B68002B08D000F049FA7868002100F08FFE00F051FAF860FB68002B07D1054B4FF080521A60BFF34F8FBFF36F8F1037BD4680BDDA
:4046400004ED00E080B586B000AF78607B683B611D4B1B683A699A4202D10023FB752DE0FFF7CCF83B695B69FB60FFF7DFF8174B1B68FA689A4204D0154B1B68FA689A42B9
:4046800002D10223FB7519E0FB68124A934209D13B699B6A002B02D10323FB750EE00223FB750BE0FB680C4A934202D0FB68002B02D10423FB7501E00123FB75FB7D1846DD
:4046C0001837BD4680BD00BF900400202005002024050020540500203C05002080B584B000AF7860FFF78AF87B68002B02D1074B1B6800E07B68FB60FB68DB6ABB60FFF75B
:4047000095F8BB6818461037BD4680BD9004002080B586B000AF7860396000237B613B68042B01D904233B60FFF768F87B68002B02D1444B1B6800E07B683B613B691B6C65
:40474000FB60FA683B689A4276D03A68FB689A420DD93C4B1B683A699A420FD0394B1B68DA6A3B689A4209D801237B6106E0354B1B683A699A4201D101237B613B69DB6ABA
:40478000BB603B691A6C3B69DB6A9A4202D13B693A68DA623B693A681A643B699B69002B04DB3B68C3F105023B699A613B695969BA6813469B0013449B00234A134499421A
:4047C00001D1012300E00023002B2AD03B6904331846FEF763FF0346002B09D1BB68012202FA03F3DA43194B1B681340174A13603B69DB6A1A46012303FA02F2134B1B681B
:404800001343124A13603B69DA6A13469B0013449B000D4A1A443B69043310461946FEF7E1FE7B69002B07D0094B4FF080521A60BFF34F8FBFF36F8FFEF7F8FF1837BD4629
:4048400080BD00BF90040020940400207005002004ED00E080B584B000AF7860FEF7CEFF7B68002B02D12F4B1B6800E07B68FB60FB6804331846FEF711FF0346002B15D165
:40488000FB68DA6A284913469B0013449B000B441B68002B0AD1FB68DB6A1A4601239340DA43224B1B681340204A1360FB689B6A002B04D0FB6818331846FEF7EFFEFB682E
:4048C00004331B481946FEF78DFEFEF7AFFF194B1B68002B05D0FEF791FF00F019FCFEF7A5FF104B1B68FA689A4218D1114B1B68002B08D0104B4FF080521A60BFF34F8F35
:40490000BFF36F8F0BE00A4B1A680C4B1B689A4203D1044B00221A6001E000F02DFA1037BD4680BD900400209404002070050020540500207405002004ED00E068050020A0
:4049400080B485B000AF78600023FB607B68BB60BB685B690F4A934201D1012300E00023002B0FD0BB689B6A0B4A93420AD0BB689B6A002B01D1012300E00023002B01D03F
:404980000123FB60FB6818461437BD465DF8047B704700BF540500202805002080B584B000AF78607B68FB60FB68002B3BD01F4B1B68FA689A4236D0FEF720FFF868FFF7F7
:4049C000BFFF0346002B2CD0FB6804331846FEF765FEFB68DB6A1A46012303FA02F2144B1B681343124A1360FB68DA6A13469B0013449B000F4A1A44FB6804331046194682
:404A0000FEF7F0FDFB68DA6A084B1B68DB6A9A4207D3094B4FF080521A60BFF34F8FBFF36F8FFEF703FF1037BD4680BD90040020700500209404002004ED00E080B584B044
:404A400002AF00230093124B01931248124964220023FFF7E5FB78607B68012B14D14FF0A00383F31188BFF36F8FBFF34F8F3B600A4B4FF0FF321A60094B01221A60094B8E
:404A800000221A60FEF79CFE0837BD4680BD00BF8C050020F14F0000547D000088050020740500206C05002080B400AF044B1B680133034A1360BD465DF8047B704700BFFE
:404AC0009005002080B584B000AF0023FB600023BB60FEF793FE3A4B1B68013B384A1360374B1B68002B63D1364B1B68002B5FD030E0354BDB68DB68FB60FB68183318462F
:404B0000FEF7CCFDFB6804331846FEF7C7FDFB68DB6A1A46012303FA02F22C4B1B6813432A4A1360FB68DA6A13469B0013449B00274A1A44FB68043310461946FEF752FDC3
:404B4000FB68DA6A234B1B68DB6A9A4202D3224B01221A601C4B1B68002BCAD1FB68002B01D000F0D5FA1D4B1B687B607B68002B10D000F053F80346002B02D0164B012216
:404B80001A607B68013B7B607B68002BF1D1134B00221A60104B1B68002B09D00123BB600F4B4FF080521A60BFF34F8FBFF36F8FFEF73CFEBB6818461037BD4680BD00BF7B
:404BC0009005002068050020280500207005002094040020900400207C0500207805002004ED00E080B483B000AF054B1B687B607B6818460C37BD465DF8047B704700BF81
:404C00006C05002080B400AF034B1B681846BD465DF8047B704700BF6805002080B586B000AF00237B61494B1B68002B7ED1484B1B6801333B61464A3B6913603B69002BF1
:404C400010D1444B1B68FB60434B1B68414A1360414AFB681360414B1B6801333F4A136000F056FA3E4B1B683A699A424FD3394B1B681B68002B01D1012300E00023002B71
:404C800004D0374B4FF0FF321A6040E0314B1B68DB68DB68BB60BB685B687B603A697B689A4203D22E4A7B68136030E0BB6804331846FEF7F3FCBB689B6A002B04D0BB6838
:404CC00018331846FEF7EAFCBB68DB6A1A46012303FA02F2234B1B681343224A1360BB68DA6A13469B0013449B001F4A1A44BB68043310461946FEF775FCBB68DA6A1B4BD7
:404D00001B68DB6A9A4201D301237B61AFE7174B1B68DA6A144913469B0013449B000B441B68012B01D901237B6104E0104B1B6801330F4A13600F4B1B68002B01D0012362
:404D40007B617B6918461837BD4680BD900500206C05002020050020240500208005002088050020700500209404002090040020780500207C05002080B586B000AF2E4B8E
:404D80001B68002B03D02D4B01221A6051E02B4B00221A602A4B1B681B6B7B614FF0A5333B617B691A683B699A4211D17B6904331A683B699A420BD17B6908331A683B6907
:404DC0009A4205D17B690C331A683B699A4208D01B4B1A681A4B1B6834331046194600F0B1FC184B1B687B607B68B3FA83F3FB70FB78C3F11F03FB60FA6813469B001344F8
:404E00009B00114A1344BB60BB685B685A68BB685A60BB685A68BB6808339A4204D1BB685B685A68BB685A60BB685B68DB68044A13601837BD4680BD900500207C0500203D
:404E400090040020700500209404002080B582B000AF78603960074B1B68183378681946FEF7E4FB3868012100F068FA0837BD4680BD00BF9004002080B584B000AF786081
:404E80007B68DB68DB68BB60BB6818331846FEF705FC1E4B1B68002B1ED1BB6804331846FEF7FCFBBB68DB6A1A46012303FA02F2174B1B681343164A1360BB68DA6A134657
:404EC0009B0013449B00134A1A44BB68043310461946FEF787FB05E0BB6818330E481946FEF780FBBB68DA6A0C4B1B68DB6A9A4205D90123FB600A4B01221A6001E00023B7
:404F0000FB60FB6818461037BD4680BD90050020700500209404002028050020900400207C05002080B483B000AF7860064B1A687B681A60054B1A687B685A600C37BD4657
:404F40005DF8047B704700BF800500206C05002080B584B000AF78603960FEF74FFC1C4B1B68BB603B681B68B3F1FF3F02D10023FB6026E07B681A68164B1B689A4207D088
:404F80007B685A68BB689A4202D80123FB6018E07B685B68BA68D21A3B681B689A420ED23B681A687B685968BB68CB1A1A443B681A607868FFF7B6FF0023FB6001E001230C
:404FC000FB60FEF733FCFB6818461037BD4680BD6C0500208005002080B400AF034B01221A60BD465DF8047B704700BF7C05002080B582B000AF786000F040F8FCE700BF40
:4050000080B582B000AF00237B600CE07A6813469B0013449B00114A13441846FEF7B6FA7B6801337B607B68042BEFD90C48FEF7ADFA0C48FEF7AAFA0B48FEF7A7FA0B480E
:40504000FEF7A4FA0A48FEF7A1FA0A4B044A1A60094B044A1A600837BD4680BD94040020F80400200C050020280500203C05002054050020200500202405002080B582B0E2
:4050800000AF28E0FFF710FD164B1B68002B0CBF01230023DBB27B60FFF714FD7B68002B19D1FEF7ABFB0F4BDB68DB683B603B6804331846FEF7F2FA0B4B1B68013B0A4A16
:4050C00013600A4B1B68013B084A1360FEF7AEFB386800F00DF8054B1B68002BD2D10837BD4680BD3C050020680500205005002080B582B000AF78607B681B6B1846FEF704
:40510000E5F97868FEF7E2F90837BD4680BD00BF80B483B000AF0E4B1B681B68002B01D1012300E00023002B04D00A4B4FF0FF321A6008E0064B1B68DB68DB687B607B68CC
:405140005B68044A13600C37BD465DF8047B7047200500208805002080B584B000AF78607B68FB607B68002B64D0FB68DA6A334B1B68DB6A9A425DD2FB689B69002B06DB0D
:405180002E4B1B68DB6AC3F10502FB689A61FB685969FB68DA6A13469B0013449B00284A1344994201D1012300E00023002B3CD0FB6804331846FEF771FA0346002B15D15D
:4051C000FB68DA6A1E4913469B0013449B000B441B68002B0AD1FB68DB6A1A4601239340DA43184B1B681340164A1360134B1B68DA6AFB68DA62FB68DB6A1A46012303FACE
:4052000002F2104B1B6813430E4A1360FB68DA6A13469B0013449B00094A1A44FB68043310461946FEF7DEF904E0044B1B68DA6AFB68DA621037BD4680BD00BF900400208F
:40524000940400207005002080B584B000AF78607B68BB600023FB607B68002B51D0BB685B6C5A1EBB685A64BB68DA6ABB681B6C9A4246D0BB685B6C002B42D1BB6804337E
:405280001846FEF70BFA0346002B15D1BB68DA6A1E4913469B0013449B000B441B68002B0AD1BB68DB6A1A4601239340DA43184B1B681340164A1360BB681A6CBB68DA62C0
:4052C000BB68DB6AC3F10502BB689A61BB68DB6A1A46012303FA02F20D4B1B6813430C4A1360BB68DA6A13469B0013449B00074A1A44BB68043310461946FEF773F9012306
:40530000FB60FB6818461037BD4680BD940400207005002080B400AF074B1B68002B04D0054B1B685A6C01325A64034B1B681846BD465DF8047B70479004002080B584B062
:4053400000AF78603960284B1B68FB60274B1B6804331846FEF7A2F90346002B0BD1234B1B68DB6A1A4601239340DA43204B1B6813401F4A13607B68B3F1FF3F0AD13B6848
:40538000002B07D0194B1B6804331A481946FEF729F926E0FA687B681344BB60134B1B68BA685A60BA68FB689A4209D2124B1A680E4B1B68043310461946FEF737F910E083
:4053C0000E4B1A68094B1B68043310461946FEF72DF90B4B1B68BA689A4202D2084ABB6813601037BD4680BD6C0500209004002070050020540500202405002020050020F9
:405400008805002080B500AFFEF7F8F901F0CEF8054801F07DF801F0B7FC044801F066FCFEF704FA80BD00BF315400005554000080B500AFFDF704F90346002B07D0044BBC
:405440004FF080521A60BFF34F8FBFF36F8F80BD04ED00E080B500AFFDF7D8F90346002B07D0044B4FF080521A60BFF34F8FBFF36F8F80BD04ED00E080B582B002AF00F02F
:405480003BF80220FAF7FEFDFAF776FFFBF714FBFBF704FD0020FBF7E7FE0020FCF77AF90020FCF70BFD0220FDF754FBFDF722FC0120FDF71DFE0220FBF784FE01204FF418
:4054C00061410322FBF70EFAFCF77EFD03230093002301930648074964220023FEF7A0FE00F0F2FA0320FBF71DFCFFF7A7FAFEE7695500005C7D000080B500AF144B154A74
:40550000DA62134B144A9A63114B144ADA6301F09BF8012001F020F90020002101F0A4F80F4801F0D7F80120002101F09DF80D4801F0D0F800F066FD00F022F900F01AFFAE
:4055400001F006FB01F09EFC01F09EFD80BD00BF0080FF1F7137000061380000B1380000647D0000787D000080B586B000AF786000237B610023BB6000237B820023FB60BB
:40558000FFF730FB0346BB6007F10803184641F28831FEF7E5FFFAF7A1FE0346012B03D07B8A43F001037B82FBF768F90346012B03D07B8A43F002037B82FBF77FFB0346A5
:4055C000012B03D07B8A43F004037B82FBF72CFC0346012B03D07B8A43F008037B82FBF7B3FD0346012B03D07B8A43F010037B82FCF7AAF80346012B03D07B8A43F0200364
:405600007B82FCF729FC0346012B03D07B8A43F040037B82FCF7AEFC0346012B03D07B8A43F080037B82FDF743FB0346012B03D07B8A43F480737B82FDF738FD0346012BB4
:4056400003D07B8A43F400737B82FDF77BFE0346012B03D07B8A43F480637B82FBF714FA0346012B03D07B8A43F400637B82FDF721FA0346012B03D07B8A43F480537B8293
:40568000012001F069F87B8A002B2CD17B69DBB203F00103DBB21846002100F0E5FF244801F018F8FB685A1CFA609BB2184601F0C5F97B6901337B617B69DBB203F00103AC
:4056C000DBB21846002100F0CFFF1A4801F002F8194B1B881A46920013449B009BB2184601F0ACF923E07B69DBB203F00103DBB21846002100F0B8FF104800F0EBFFFB68B4
:405700009BB2184601F09AF97B6901337B617B69DBB203F00103DBB21846002100F0A4FF074800F0D7FF7B8A184601F073F92BE78C7D0000947D0000A0050020A07D00005C
:40574000AC7D000080B485B000AF786039604FF0A00383F31188BFF36F8FBFF34F8FFB60FEE700BF80B483B000AF4FF0A00383F31188BFF36F8FBFF34F8F7B60FEE700BF81
:4057800080B483B000AF00237B6007E0074A7B68134400221A707B6801337B607B68032BF4DD0C37BD465DF8047B70479405002080B582B000AF78603960FEF71FF87B68E3
:4057C000032B2FD801A252F823F000BFDD570000EF57000001580000135800003B68DBB203F00103DBB2184600F0D4FC1BE03B68DBB203F00103DBB2184600F0E9FC12E0D1
:405800003B68DBB203F00103DBB2184601F068F909E03B68DBB203F00103DBB2184601F07DF900E000BFFEF701F87B68032B09D83B68DBB203F00103D9B2044A7B681344E9
:405840000A461A700837BD4680BD00BF9405002080B582B000AF78607B68032B0DD8084A7B6813441B78DBB2002B0CBF01230023DBB278681946FFF79BFF0837BD4680BDAF
:405880009405002080B582B000AF78603960386801210022FEF798F80246134B1A6000F05DFD124800F00CFD386801210022FEF78BF802460E4B1A6000F0F6FC0D4800F0E4
:4058C000A5FC002000F030FC094B1B68002B05D0054B1B68002B01D0012300E0002318460837BD4680BD00BF9C0500208559000098050020195A000080B586B000AFF86021
:40590000B9607A6000237B61084B1B681846B9687A680023FEF7F2F90346012B01D101237B617B6918461837BD4680BD9C05002080B586B000AFF8600B467A60FB72002335
:405940007B610F4B1A6807F10B03104619467A680023FEF7CBF80346012B02D101237B6101E000237B61FDF749FF032000F0DCFBFDF75CFF7B6918461837BD4680BD00BFCA
:405980009805002080B586B000AF00237B600023FB700023BB7000237B6100F091FB0346FB70FB78DBB203F02003002B21D000F099FB0346DBB2BB70EFF311824FF0A003F9
:4059C00083F31188BFF36F8FBFF34F8F3A61FB603B697B610E4B1968BA1C3B1D084611461A460023FEF730F97B69BB60BB6883F311887B68002B07D0064B4FF080521A60A2
:405A0000BFF34F8FBFF36F8F1837BD4680BD00BF9C05002004ED00E080B586B000AF00237B600023FB700023BB7000237B6100F08BFB0346FB70FB78DBB203F00103002B07
:405A400005D1FB78DBB203F00203002B2AD0EFF311824FF0A00383F31188BFF36F8FBFF34F8F3A61FB603B697B61154B1968BA1C3B1D084611461A46FEF71CFA0346012B83
:405A800008D1BB78DBB2184600F06AFB012000F04BFB02E0002000F047FB7B69BB60BB6883F311887B68002B07D0064B4FF080521A60BFF34F8FBFF36F8F1837BD4680BD4E
:405AC0009805002004ED00E080B500AF014801F01BFA80BDD95A000080B582B000AF01F015FB0346FB80124B1B88042B14D9114B1A88FB88D31ABB800F4B1B88BA889A42BA
:405B000010D90D4ABB8813800B4B1B88A3F516639AB20A4B1A8005E0054B1B8801339AB2034B1A80034AFB8813800837BD4680BDA2050020A4050020A6050020A0050020C8
:405B400080B500AF01F0A2FF03461B680C2B00D1FEE7FEE780B586B000AF224B7B61224B3B61204B7B6135E03B691B68FB603B695B68BB603B699B683B6000237B600CE019
:405B8000FB681A68BB681A60BB680433BB60FB680433FB607B6804337B607A683B689A42EED13B69DB683B6000237B6008E0BB6800221A60BB680433BB607B6804337B6053
:405BC0007A683B689A42F2D13B6910333B617B69013B7B617B69002BC6D101F05DFFFFF74BFCFEE701000000387E000080B582B000AF174B174A1A60174A174B1B6843F466
:405C00000073136000237B600FE07B68032B04D8124A7B6852F8233000E0114B11497A6841F822307B6801337B607B682F2BECD90D4B1B78DAB20D4B1A700D4B094A1A6053
:405C400000F022F90B4B00221A600837BD4680BD0CED00E00004FA0514ED00E000000000415B00000080FF1FBC7600400481FF1F08ED00E00081FF1F80B582B000AF78603A
:405C80003960786800213A6801F037FF0837BD4680BD00BF80B584B000AFF860B9607A60F868B9687A6801F01DFF1037BD4680BD80B483B000AF0346FB71FEE780B487B0CE
:405CC00000AF7860396000233B6100237B6127E07B699B007A6813441B68BB60BB68FB73BB6823F0FF03BB6014E03B695B003A6813441B781A46BB68134419463B695B00CE
:405D00003A6813445B780B703B6901333B61FB7B013BFB73FB7B002BE7D17B6901337B617B69152BD4D91C37BD465DF8047B704780B582B000AF334B2F221A80324B182253
:405D40001A70324B67221A80314B18221A70314B02221A704FF0402308221A702E4B03221A702E4B2E4A1278D2B21A702D4B10221A802D4B41F251221A800023FB701923C2
:405D80007B6014E0FB785B00DAB2284B1B78DBB203F00103DBB21343DBB203F00303FB704FF4F07001F010FA7B68013B7B607B68002B02D0FB78032BE4D17B68002B02D1AD
:405DC0000320FFF775FF1A4B4FF480721A80184B07221A70174B00221A70174B48221A70134B00221A70154B02221A70144A144B1B78DBB243F00303DBB213700837BD46E8
:405E000080BD00BF804000408240004084400040864000400043004000420040A14600400801004922420040204200402542004004400040064000400840004001400040DC
:405E4000A243004080B483B000AF0B4B1B78FB710A4AFB7903F00703DBB21370084AFB791B09DBB21370074B44221A700C37BD465DF8047B704700BFCF0100496E580040D2
:405E80006F5800407658004080B586B000AF72B64A4A4A4B1B78DBB243F00403DBB213700023FB7513E0FA7D13465B0013445B00434A13443B613B691A683B699B889BB2DB
:405EC00010461946FFF7D8FEFB7D0133FB75FB7D092BE8D90023FB751CE0FA7D13469B0013445B00374A1344FB60FB681B68BB60FB685B687B60FB681A7A5B7A1B02134378
:405F00007B807B88B86879681A46FFF7C3FEFB7D0133FB75FB7D002BDFD04FF090402A49FFF7CCFE294A294B1B78DBB243F00203DBB21370264A264B1B78DBB243F0020313
:405F4000DBB21370234A234B1B78DBB243F04003DBB21370204A204B1B78DBB243F01003DBB213701D481E490822FFF793FE1D481D490A22FFF78EFE1C481D490822FFF765
:405F800089FE1C4A1B4B1B78DBB243F00803DBB21370194B01221A70FFF7CAFE164BC1221A70164B01221A70FFF74CFF144809490E22FFF76FFE1837BD4680BDE8460040F6
:405FC000B87D0000F47D0000580000480350014013500140A0430040C2430040025100402005004810510040280500482251004034050048224300400048004004000840F8
:40600000B043004080B500AF054B1B78002B04D100F008F8024B01221A7000F023F880BDA805002080B400AF094B72221A70094B20221A70084B06221A70084B47221A70A7
:40604000074B03221A70BD465DF8047B704700BF866400408764004025650040356500408465004080B582B000AF01F0B5F80346FB71104A0F4B1B78DBB243F02003DBB290
:4060800013700D4A0C4B1B78DBB243F01003DBB213700A4A094B1B78DBB243F01003DBB2137001F043F8FB79184601F099F80837BD4680BD9664004097640040946500406E
:4060C00080B483B000AF064B1B78DBB203F07F03FB71FB7918460C37BD465DF8047B70476764004080B483B000AF0023FB710C4B1B78BB71BB7903F02003002B09D0094B2D
:406100001B78FB71BB7903F01E03002B01D00023FB71FB7918460C37BD465DF8047B7047676400404664004080B483B000AF0346FB71044AFB7913700C37BD465DF8047BCB
:40614000704700BF8465004080B400AF034B1B78DBB21846BD465DF8047B70476465004080B483B000AF0346FB7100BF074B1B78DBB203F00403002BF8D1054AFB7913700A
:406180000C37BD465DF8047B704700BF646500404465004080B485B000AF0346FB710B4B1B78DBB223F01003FB730849FB791B01DBB203F01003DAB2FB7B1343DBB20B70B2
:4061C0001437BD465DF8047B704700BF0051004080B485B000AF0346FB710B4B1B78DBB223F02003FB730849FB795B01DBB203F02003DAB2FB7B1343DBB20B701437BD461D
:406200005DF8047B704700BF0051004080B582B000AF786000F03CF8786800F009F8052000F018F800F028F80837BD4680BD00BF80B485B000AF7860054B1B68FB60FB68AC
:4062400050337A681A601437BD465DF8047B704708ED00E080B483B000AF0346FB71054AFB795B01DBB213700C37BD465DF8047B704700BF04E400E080B400AF034B1022DC
:406280001A60BD465DF8047B704700BF00E100E080B400AF034B10221A60BD465DF8047B704700BF80E100E080B400AF034B10221A60BD465DF8047B704700BF80E200E07F
:4062C00080B582B000AF786000F03CF8786800F009F8052000F018F800F028F80837BD4680BD00BF80B485B000AF7860054B1B68FB60FB684C337A681A601437BD465DF849
:40630000047B704708ED00E080B483B000AF0346FB71054AFB795B01DBB213700C37BD465DF8047B704700BF03E400E080B400AF034B08221A60BD465DF8047B704700BFDF
:4063400000E100E080B400AF034B08221A60BD465DF8047B704700BF80E100E080B400AF034B08221A60BD465DF8047B704700BF80E200E080B500AF054B1B78002B04D1CE
:4063800000F008F8024B01221A7000F04BF880BDAA05002080B582B000AF1F4B1B78DBB223F03F03FB711C4AFB7943F00903DBB213701A4A194B1B78DBB243F00103DBB27E
:4063C0001370174A164B1B78DBB243F00103DBB213704FF4FA7000F035F84FF4FA7000F04FF8FA2000F05CF8002000F069F800F0F3FE0346BB710A4A094B1B78DBB243F023
:406400001003DBB21370BB79184600F0E9FE00F029F80837BD4680BD77650040966500409765004080B400AF054A054B1B78DBB263F07F03DBB21370BD465DF8047B704798
:406440007765004080B483B000AF0346FB80044AFB8813800C37BD465DF8047B704700BF0C6A004080B500AF01E000F045F800F037F8034603F01003002BF6D180BD00BF2E
:4064800080B483B000AF0346FB80044AFB8813800C37BD465DF8047B704700BF8C6A004080B483B000AF0346FB80044AFB8813800C37BD465DF8047B704700BF4C6A004014
:4064C00080B483B000AF0346FB71044AFB7913700C37BD465DF8047B704700BF8765004080B400AF034B1B78DBB21846BD465DF8047B70476765004080B400AF034B1B88B3
:406500009BB21846BD465DF8047B7047AC6A004080B582B000AF786000F03CF8786800F009F8062000F018F800F028F80837BD4680BD00BF80B485B000AF7860054B1B68B2
:40654000FB60FB6844337A681A601437BD465DF8047B704708ED00E080B483B000AF0346FB71054AFB795B01DBB213700C37BD465DF8047B704700BF01E400E080B400AFAA
:40658000034B02221A60BD465DF8047B704700BF00E100E080B400AF034B02221A60BD465DF8047B704700BF80E100E080B400AF034B02221A60BD465DF8047B704700BF68
:4065C00080E200E080B500AF282000F0C9FD032000F0D4F9052000F0C3FD032000F0CEF90F2000F0BDFD032000F0C8F9012000F0B7FD022000F0C2F9052000F0B1FD0620C0
:4066000000F0AAF80E2000F0A7F82C2000F0A4F8082000F0A1F8012000F09EF80C2000F09BF8032000F098F8052000F099FD80BD80B500AF0C2000F08FF8024B01221A7020
:4066400080BD00BFAB05002080B500AF054B1B78002B04D1FFF7B6FF024B01221A70FFF7E7FF80BDAC05002080B582B000AF03460A46FB711346BB71FB79032B26D801A215
:4066800052F823F095660000A3660000B1660000BF660000BB79803BDBB2184600F05CF815E0BB79403BDBB2184600F055F80EE0BB796C3BDBB2184600F04EF807E0BB794E
:4066C0002C3BDBB2184600F047F800E000BF0837BD4680BD80B584B000AF78600123FB737B681B78BB730BE0BB7B184600F01AF8FB7B7A6813441B78BB73FB7B0133FB73CC
:40670000BB7B002BF0D11037BD4680BD80B582B000AF0346FB71FB79184600F003F80837BD4680BD80B584B000AF0346FB7100F02DF8FB791B09FB73FB7B184600F0E2F823
:40674000FB7903F00F03FB73FB7B184600F0DAF81037BD4680BD00BF80B584B000AF0346FB7100F013F8FB791B09FB73FB7B184600F004F9FB7903F00F03FB73FB7B18460C
:4067800000F0FCF81037BD4680BD00BF80B582B000AF4FF4CA737B60554A554B1B78DBB223F07F03DBB21370524B1B78DBB223F00F03FB704F4AFB7843F00F03DBB213708C
:4067C0004D4B1B78DBB223F00F03FB704A4AFB7813704A4B1B78DBB223F00F03FB70474AFB781370424A424B1B78DBB223F02003DBB213703E4A3E4B1B78DBB243F04003D5
:40680000DBB21370002000F0CDFC394A384B1B78DBB243F01003DBB21370012000F0C2FC374B1B78FB70324A314B1B78DBB223F01003DBB21370002000F0B4FCFB7803F030
:406840000803FB702A4A2A4B1B78DBB243F01003DBB21370012000F0A5FC254A244B1B78DBB223F01003DBB21370FB78002B02D10A2000F097FC7B68013B7B60FB78002BA7
:4068800002D07B68002BBDD1194A194B1B78DBB223F04003DBB21370154A154B1B78DBB223F07F03DBB21370124A124B1B78DBB223F00F03DBB213700F4B1B78DBB223F0FE
:4068C0000F03FB700C4AFB7843F00F03DBB213700A4B1B78DBB223F00F03FB70074AFB7843F00F03DBB213700837BD4680BD00BF20510040225100402351004024510040D4
:406900002151004080B582B000AF0346FB711A4A194B1B78DBB243F02003DBB21370164A154B1B78DBB223F04003DBB21370002000F038FC104A104B1B78DBB223F00F0308
:40694000DBB213700C490C4B1B78DAB2FB791343DBB243F01003DBB20B70012000F022FC054A054B1B78DBB223F01003DBB213700837BD4680BD00BF2051004080B582B01D
:4069800000AF0346FB71144A134B1B78DBB223F06003DBB21370104A0F4B1B78DBB223F00F03DBB213700C490B4B1B78DAB2FB791343DBB243F01003DBB20B70012000F088
:4069C000F1FB054A044B1B78DBB223F01003DBB213700837BD4680BD2051004080B582B000AF0346FB71FB791B09DBB21A46084B9B5C1846FFF78AFEFB7903F00F03044A4A
:406A0000D35C1846FFF782FE0837BD4680BD00BF007E000080B582B000AF0346FB80FB881B0A9BB2DBB21846FFF7D8FFFB88DBB21846FFF7D3FF0837BD4680BD80B586B0F0
:406A400000AF78600A23FB75FB7D07F118021344002203F8102CFB7D013BFB751CE079681E4BA3FB0123DA0813469B0013445B00CA1AD3B23033BB75FB7D07F11802134427
:406A8000BA7D03F8102C7B68144AA2FB0323DB087B60FB7D013BFB757B68092BDFD879680E4BA3FB0123DA0813469B0013445B00CA1AD3B23033BB75FB7D07F11802134453
:406AC000BA7D03F8102CFB7D07F1080213441846FFF700FE1837BD4680BD00BFCDCCCCCC80B485B000AF0346FB710B4B1B78DBB223F04003FB730849FB799B01DBB203F09E
:406B00004003DAB2FB7B1343DBB20B701437BD465DF8047B704700BF0051004080B485B000AF0346FB71094B1B78DBB203F07F03FB730649FB79DB01DAB2FB7B1343DBB2E1
:406B40000B701437BD465DF8047B70470051004080B500AF054B1B78002B04D100F008F8024B01221A7000F04BF880BDAD05002080B582B000AF1F4B1B78DBB223F03F0348
:406B8000FB711C4AFB7943F00903DBB213701A4A194B1B78DBB243F00103DBB21370174A164B1B78DBB243F00103DBB2137040F2F51000F035F840F2F51000F04FF8FA200C
:406BC00000F05CF8002000F069F800F005FB0346BB710A4A094B1B78DBB243F01003DBB21370BB79184600F0FBFA00F029F80837BD4680BD726400409264004093640040D3
:406C000080B400AF054A054B1B78DBB263F07F03DBB21370BD465DF8047B70477264004080B483B000AF0346FB80044AFB8813800C37BD465DF8047B704700BF04680040AF
:406C400080B500AF01E000F045F800F037F8034603F01003002BF6D180BD00BF80B483B000AF0346FB80044AFB8813800C37BD465DF8047B704700BF8468004080B483B065
:406C800000AF0346FB80044AFB8813800C37BD465DF8047B704700BF4468004080B483B000AF0346FB71044AFB7913700C37BD465DF8047B704700BF8364004080B400AFD7
:406CC000034B1B78DBB21846BD465DF8047B70476364004080B400AF034B1B889BB21846BD465DF8047B7047A468004080B582B000AF786000F03CF8786800F009F80620D1
:406D000000F018F800F028F80837BD4680BD00BF80B485B000AF7860054B1B68FB60FB6848337A681A601437BD465DF8047B704708ED00E080B483B000AF0346FB71054AE5
:406D4000FB795B01DBB213700C37BD465DF8047B704700BF02E400E080B400AF034B04221A60BD465DF8047B704700BF00E100E080B400AF034B04221A60BD465DF8047B56
:406D8000704700BF80E100E080B400AF034B04221A60BD465DF8047B704700BF80E200E080B500AF214A214B1B78DBB203F00103DBB213701E4A1E4B1B78DBB223F00303D0
:406DC000DBB213701B4A1B4B1B78DBB223F03003DBB21370174A174B1B78DBB243F03003DBB21370134A134B1B78DBB223F00F03DBB213700F4A0F4B1B78DBB243F00F03C1
:406E0000DBB213700C4A0C4B1B78DBB243F00103DBB2137040F65F1000F054F840F65F1000F062F8002000F03DF880BD004F0040024F00400B4F0040014F004080B400AFAF
:406E40000D4A0D4B1B78DBB243F00103DBB213700A4A0A4B1B78DBB243F00103DBB21370074A074B1B78DBB243F00103DBB21370BD465DF8047B7047A3430040B3430040F8
:406E8000004F004080B500AF054B1B78002B04D1FFF786FF024B01221A70FFF7CFFF80BDAE05002080B483B000AF0346FB71044AFB7913700C37BD465DF8047B704700BF93
:406EC000034F004080B485B000AF0346FB80FB88FB81044AFB8913801437BD465DF8047B704700BF044F004080B483B000AF0346FB80044AFB8813800C37BD465DF8047B3D
:406F0000704700BF064F004080B582B000AF786000F03CF8786800F009F8002000F018F800F028F80837BD4680BD00BF80B485B000AF7860054B1B68FB60FB6840337A681F
:406F40001A601437BD465DF8047B704708ED00E080B483B000AF0346FB71054AFB795B01DBB213700C37BD465DF8047B704700BF00E400E080B400AF034B01221A60BD46CA
:406F80005DF8047B704700BF00E100E080B400AF034B01221A60BD465DF8047B704700BF80E100E080B500AF214A214B1B78DBB203F00103DBB213701E4A1E4B1B78DBB297
:406FC00023F00303DBB213701B4A1B4B1B78DBB223F03003DBB21370174A174B1B78DBB243F03003DBB21370134A134B1B78DBB223F00F03DBB213700F4A0F4B1B78DBB2EB
:4070000043F00F03DBB213700C4A0C4B1B78DBB243F00103DBB213704FF6FF7000F054F84FF6FF7000F062F8002000F03DF880BD0C4F00400E4F0040174F00400D4F0040FD
:4070400080B400AF0D4A0D4B1B78DBB243F00203DBB213700A4A0A4B1B78DBB243F00203DBB21370074A074B1B78DBB243F00103DBB21370BD465DF8047B7047A343004047
:40708000B34300400C4F004080B500AF054B1B78002B04D1FFF786FF024B01221A70FFF7CFFF80BDAF05002080B483B000AF0346FB71044AFB7913700C37BD465DF8047BC4
:4070C000704700BF0F4F004080B485B000AF0346FB80FB88FB81044AFB8913801437BD465DF8047B704700BF104F004080B483B000AF0346FB80044AFB8813800C37BD4681
:407100005DF8047B704700BF124F004080B400AF044B1B88044B1B889BB21846BD465DF8047B7047124F0040144F004080B400AF094A094B1B78DBB243F00203DBB213702E
:40714000064A064B1B78DBB243F00203DBB21370BD465DF8047B7047A2430040B243004080B582B000AF786008E00C4B1B68184600F02AF87B68A3F500437B607B68B3F5DA
:40718000004FF2D8064B1B687A6802FB03F3184600F01AF80837BD4680BD00BF2881FF1F2081FF1F80B582B000AF0346FB80FB88044A127802FB03F3184600F005F8083737
:4071C000BD4680BD2481FF1F0230800803D000BF01380046FCD17047EFF3108072B6704780F31088704700BF81F0004102E000BF83F0004330B54FEA41044FEA430594EA00
:40720000050F08BF90EA020F1FBF54EA000C55EA020C7FEA645C7FEA655C00F0E2804FEA5454D4EB5555B8BF6D420CDD2C4480EA020281EA030382EA000083EA010180EAE1
