:400000000080002011000000CD1D0000CD1D000080B500AF024A034B1B68136001F0E0FEBC760040FA46004010B5054C237833B9044B13B10448AFF300800123237010BD64
:400040007881FF1F0000000028270000084B10B51BB108480849AFF300800848036803B910BD074B002BFBD0BDE81040184700BF00000000282700007C81FF1F0881FF1FC3
:400080000000000080B586B002AFF860B9607A600F4A7B681360B868182101F075FDFB68013B0093002301930A480B496422002300F008FFFB6800930023019307480849F2
:4000C0006422002300F0FEFE1037BD4680BD00BF9881FF1FE50000002C270000490100003427000080B584B000AF78604123FB730BE0134B1A68FB7B5BB21046194600222A
:4001000001F098FDFB7B0133FB73FB7B582BF0D901F0F0F803460333BB60BB68094AA2FB03121209962101FB02F29B1ABB60BB68312B01D83223BB60B86800F0E5FFD5E7BA
:400140009481FF1FB5814E1B80B586B000AF786000237B6100233B61054B1A6807F10F03104619464FF6FF7201F048FDF4E700BF9481FF1F80B588B000AF786000237B61C0
:4001800001F01AF8404B1B68002B04D100F0BCF83D4B01221A607B68002B0ED008231A467B6813447B607B6803F00703002B04D07B6823F0070308337B607B68002B57D0AF
:4001C0007B6847F6F772934252D8304BBB612F4B1B68FB6104E0FB69BB61FB691B68FB61FB695A687B689A4203D2FB691B68002BF1D1FB69264A93423AD0BB691B680822CE
:4002000013447B61FB691A68BB691A60FB695A687B68D31A08225200934222D9FA697B681344FB60FB695A687B68D21AFB685A60FB697A685A60FB685B68BB60134B3B6180
:4002400002E03B691B683B613B691B685A68BB689A42F6D33B691A68FB681A603B69FA681A600C4B1A68FB695B68D31A094A136000F0B0FF7B69002B01D101F077FC7B692A
:4002800018462037BD4680BDB0010020A0010020A80100200C81FF1F80B586B000AF78607B683B617B68002B27D008235B423A6913443B613B69FB6000F07EFFFB685B68DD
:4002C000BB600F4B7B6102E07B691B687B617B691B685A68BB689A42F6D37B691A68FB681A607B69FA681A60FB685A68054B1B681344044A136000F06DFF1837BD4680BD99
:40030000A00100200C81FF1F80B483B000AF0F4B23F007037B600E4A7B6813600C4B00225A600C4B47F6F8725A600A4B00221A607B683B603B6847F6F8725A603B68054AEB
:400340001A600C37BD465DF8047B7047A881FF1FA0010020A801002080B483B000AF78607B6803F108027B685A607B684FF0FF329A607B6803F108027B68DA607B6803F1D3
:4003800008027B681A617B6800221A600C37BD465DF8047B704700BF80B483B000AF78607B6800221A610C37BD465DF8047B704780B485B000AF786039607B685B68FB60FD
:4003C0003B68FA685A60FB689A683B689A60FB689B683A685A60FB683A689A603B687A681A617B681B685A1C7B681A601437BD465DF8047B704700BF80B485B000AF7860BA
:4004000039603B681B68BB60BB68B3F1FF3F03D17B681B69FB600CE07B680833FB6002E0FB685B68FB60FB685B681A68BB689A42F6D9FB685A683B685A603B685B683A687F
:400440009A603B68FA689A60FB683A685A603B687A681A617B681B685A1C7B681A601437BD465DF8047B704780B485B000AF78607B681B69FB607B685B687A6892689A6084
:400480007B689B687A6852685A60FB685A687B689A4203D17B689A68FB685A607B6800221A61FB681B685A1EFB681A60FB681B6818461437BD465DF8047B704780B485B005
:4004C00000AFF860B9607A60FB68043BFB60FB684FF080721A60FB68043BFB60BB6823F00102FB681A60FB68043BFB60094AFB681A60FB68143BFB607A68FB681A60FB6888
:40050000203BFB60FB6818461437BD465DF8047B704700BF1905000080B483B000AF4FF0A00383F31188BFF36F8FBFF34F8F7B60FEE700BF000000000000000000000000C8
:40054000074B19680868B0E8F00F80F30988BFF36F8F4FF0000080F311884EF00D0E7047B4010020AFF30080AFF30080AFF3008006480068006880F3088862B661B6BFF355
:400580004F8FBFF36F8F00DF00BF000008ED00E080B500AF0B4A0B4B1B6843F460031360084A084B1B6843F06043136000F088F8054B00221A60FFF7DBFFFFF7ADFF0023B9
:4005C000184680BD20ED00E01081FF1F80B483B000AF4FF0A00383F31188BFF36F8FBFF34F8F7B60044B1B680133034A13600C37BD465DF8047B70471081FF1F80B483B0F5
:4006000000AF094B1B68013B074A1360064B1B68002B04D100237B607B6883F311880C37BD465DF8047B70471081FF1F00000000EFF30980BFF36F8F0D4B1A6820E9F00FF3
:4006400010602DE908404FF0A00080F3118800F00FFF4FF0000080F31188BDE8084019680868B0E8F00F80F30988BFF36F8F7047B4010020AFF30080AFF30080AFF300805D
:4006800080B582B000AF4FF0A00383F31188BFF36F8FBFF34F8F7B6000F03CFE0346002B03D0064B4FF080521A6000233B603B6883F311880837BD4680BD00BF04ED00E04C
:4006C00080B400AF054B4BF67F321A60044B07221A60BD465DF8047B704700BF14E000E010E000E080B584B000AF786039607B68FB60FFF76BFFFB681A68FB68DB6BF96862
:40070000096C01FB03F31A44FB685A60FB6800229A63FB681A68FB689A60FB681A68FB68DB6B013BF968096C01FB03F31A44FB68DA60FB68FF2283F84420FB68FF2283F824
:4007400045203B68002B14D1FB681B69002B1AD0FB681033184600F00BFF0346002B12D00C4B4FF080521A60BFF34F8FBFF36F8F09E0FB6810331846FFF7EEFDFB68243367
:400780001846FFF7E9FDFFF739FF012318461037BD4680BD04ED00E090B58BB002AFF860B9601346FB71BB68002B02D10023FB6104E0FB68BA6802FB03F3FB61FB69483359
:4007C0001846FFF7D7FCB861BB69002B0BD0BB6948337B61FC79BB690093F868B9687A69234600F005F8BB6918462437BD4690BD80B584B000AFF860B9607A60FB70BB6810
:40080000002B03D1BB69BA691A6002E0BB697A681A60BB69FA68DA63BB69BA681A64B8690121FFF75FFF1037BD4680BD80B58AB000AFF860B9607A603B6000237B62FB688A
:400840003B62FFF7C3FE3B6A9A6B3B6ADB6B9A4202D33B68022B29D1386AB9683A6800F01FFAF8613B6A5B6A002B10D03B6A2433184600F07DFE0346002B13D0414B4FF0F1
:4008800080521A60BFF34F8FBFF36F8F0AE0FB69002B07D03B4B4FF080521A60BFF34F8FBFF36F8FFFF7AAFE012367E07B68002B03D1FFF7A3FE002360E07B6A002B06D13F
:4008C00007F11403184600F0A9FE01237B62FFF795FE00F071FCFFF779FE3B6A93F84430DBB25BB2B3F1FF3F03D13B6A002283F844203B6A93F84530DBB25BB2B3F1FF3FE5
:4009000003D13B6A002283F84520FFF777FE07F114023B1D1046194600F096FE0346002B24D1386A00F0B6FA0346002B18D03B6A03F110027B681046194600F003FE386A55
:4009400000F040FA00F046FC0346002B15D10D4B4FF080521A60BFF34F8FBFF36F8F0CE0386A00F02FFA00F035FC6AE7386A00F029FA00F02FFC002300E062E718462837AC
:40098000BD4680BD04ED00E080B58CB000AFF860B9607A603B60FB68BB62EFF311824FF0A00383F31188BFF36F8FBFF34F8FFA61BB61FB697B62BB6A9A6BBB6ADB6B9A42D1
:4009C00002D33B68022B2CD1BB6A93F8453087F82330B86AB9683A6800F062F997F92330B3F1FF3F12D1BB6A5B6A002B16D0BB6A2433184600F0BCFD0346002B0ED07B68D3
:400A0000002B0BD07B6801221A6007E097F823300133DBB2DAB2BB6A83F845200123FB6201E00023FB627B6A7B617B6983F31188FB6A18463037BD4680BD00BF80B58AB0E7
:400A400000AFF860B9607A603B6000237B62FB683B62FFF7BBFD3B6A9B6BFB61FB69002B46D03B6ADB68BB61386AB96800F084F93B68002B21D1FB695A1E3B6A9A633B6A70
:400A80001B68002B04D100F0C1FF02463B6A5A603B6A1B69002B27D03B6A1033184600F067FD0346002B1FD0514B4FF080521A60BFF34F8FBFF36F8F16E03B6ABA69DA60B5
:400AC0003B6A5B6A002B0FD03B6A2433184600F04FFD0346002B07D0454B4FF080521A60BFF34F8FBFF36F8FFFF788FD01237AE07B68002B03D1FFF781FD002373E07B6A9C
:400B0000002B06D107F11003184600F087FD01237B62FFF773FD00F04FFBFFF757FD3B6A93F84430DBB25BB2B3F1FF3F03D13B6A002283F844203B6A93F84530DBB25BB212
:400B4000B3F1FF3F03D13B6A002283F84520FFF755FD07F110023B1D1046194600F074FD0346002B31D1386A00F07EF90346002B25D03B6A1B68002B08D1FFF727FD3B6A85
:400B80005B68184600F064FEFFF738FD3B6A03F124027B681046194600F0D4FC386A00F011F900F017FB0346002B1BD1104B4FF080521A60BFF34F8FBFF36F8F12E0386AC8
:400BC00000F000F900F006FB43E7386A00F0FAF800F000FB386A00F047F90346002B01D0002300E035E718462837BD4680BD00BF04ED00E080B58CB000AFF860B9607A6054
:400C0000FB68BB62EFF311824FF0A00383F31188BFF36F8FBFF34F8FBA617B61BB697B62BB6A9B6B3B623B6A002B2DD0BB6A93F84430FB77B86AB96800F09EF83B6A5A1E85
:400C4000BB6A9A6397F91F30B3F1FF3F12D1BB6A1B69002B15D0BB6A1033184600F088FC0346002B0DD07B68002B0AD07B6801221A6006E0FB7F0133DBB2DAB2BB6A83F8B5
:400C800044200123FB6201E00023FB627B6A3B613B6983F31188FB6A18463037BD4680BD80B586B000AFF860B9607A6000237B61FB689B6B3B61FB681B6C002B0DD1FB6891
:400CC0001B68002B4FD1FB685B68184600F038FE7861FB6800225A6045E07B68002B1AD1FB689A68FB681B6C1046B9681A4601F007FDFB689A68FB681B6C1A44FB689A6021
:400D0000FB689A68FB685B689A422CD3FB681A68FB689A6027E0FB68DA68FB681B6C1046B9681A4601F0ECFCFB68DA68FB681B6C5B421A44FB68DA60FB68DA68FB681B6813
:400D40009A4207D2FB685A68FB681B6C5B421A44FB68DA607B68022B05D13B69002B02D03B69013B3B613B695A1CFB689A637B6918461837BD4680BD80B582B000AF7860DB
:400D800039607B681B6C002B19D07B68DA687B681B6C1A447B68DA607B68DA687B685B689A4203D37B681A687B68DA607B68DA687B681B6C386811461A4601F0A1FC083760
:400DC000BD4680BD80B584B000AF7860FFF7FEFB7B6893F84530FB7313E07B685B6A002B0AD07B682433184600F0C2FB0346002B03D000F06DFC00E007E0FB7B013BDBB2F8
:400E0000FB7397F90F30002BE7DC7B68FF2283F84520FFF7F3FBFFF7D9FB7B6893F84430BB7313E07B681B69002B0ED07B681033184600F09DFB0346002B01D000F048FCFD
:400E4000BB7B013BDBB2BB7300E003E097F90E30002BE7DC7B68FF2283F84420FFF7CEFB1037BD4680BD00BF80B584B000AF7860FFF7ACFB7B689B6B002B02D10123FB60EB
:400E800001E00023FB60FFF7B9FBFB6818461037BD4680BD80B584B000AF7860FFF796FB7B689A6B7B68DB6B9A4202D10123FB6001E00023FB60FFF7A1FBFB681846103732
:400EC000BD4680BD80B58CB004AFF860B9603B601346FB80FB889B001846FFF74BF978617B69002B0ED05020FFF744F9F861FB69002B03D0FB697A691A6305E07869FFF754
:400F0000CBF901E00023FB61FB69002B11D0FA88BB6A0093FB6A0193FB690293F868B9683B6800F00FF8F86900F082F80123BB6102E04FF0FF33BB61BB6918462037BD4680
:400F400080BD00BF80B586B000AFF860B9607A603B60BB6A1A6B7B689B001046A5211A4601F0D9FBBB6A1A6B7B6803F18043013B9B0013443B613B6923F007033B6100237E
:400F80007B6113E0BA687B6913441978BA6A7B69134430330A461A71BA687B6913441B78002B00D105E07B6901337B617B690B2BE8D9BB6A002283F83F203B6A042B01D968
:400FC00004233B62BB6A3A6ADA62BB6A3A6A1A64BB6A00225A64BB6A04331846FFF7DCF9BB6A18331846FFF7D7F9BB6ABA6A1A613B6AC3F10502BB6A9A61BB6ABA6A5A627A
:40100000BB6A00229A64BB6A002283F84C203869F9683A68FFF752FA0246BB6A1A607B6A002B02D07B6ABA6A1A601837BD4680BD80B582B000AF7860FFF7C8FA2B4B1B68DD
:4010400001332A4A13602A4B1B68002B09D1284A7B681360254B1B68012B10D100F04CFB0DE0244B1B68002B09D1214B1B68DA6A7B68DB6A9A4202D81D4A7B6813601E4B3E
:401080001B6801331C4A13607B68DB6A1A46012303FA02F2194B1B681343184A13607B68DA6A13469B0013449B00154A1A447B68043310461946FFF77BF9FFF79FFA0D4B07
:4010C0001B68002B0ED00A4B1B68DA6A7B68DB6A9A4207D20B4B4FF080521A60BFF34F8FBFF36F8F0837BD4680BD00BF8C020020B401002098020020A8020020940200204F
:40110000B801002004ED00E080B584B000AF78600023FB607B68002B08D000F04DF87868002100F087FC00F055F8F860FB68002B07D1054B4FF080521A60BFF34F8FBFF3F0
:401140006F8F1037BD4680BD04ED00E080B584B002AF00230093124B01931248124964220023FFF7AFFE78607B68012B14D14FF0A00383F31188BFF36F8FBFF34F8F3B60BF
:401180000A4B4FF0FF321A60094B01221A60094B00221A60FFF7FCF90837BD4680BD00BFB0020020E91600003C270000AC020020980200209002002080B400AF044B1B68C3
:4011C0000133034A1360BD465DF8047B704700BFB402002080B584B000AF0023FB600023BB60FFF7F3F93A4B1B68013B384A1360374B1B68002B63D1364B1B68002B5FD027
:4012000030E0354BDB68DB68FB60FB6818331846FFF72AF9FB6804331846FFF725F9FB68DB6A1A46012303FA02F22C4B1B6813432A4A1360FB68DA6A13469B0013449B002B
:40124000274A1A44FB68043310461946FFF7B0F8FB68DA6A234B1B68DB6A9A4202D3224B01221A601C4B1B68002BCAD1FB68002B01D000F0C9FA1D4B1B687B607B68002B84
:4012800010D000F047F80346002B02D0164B01221A607B68013B7B607B68002BF1D1134B00221A60104B1B68002B09D00123BB600F4B4FF080521A60BFF34F8FBFF36F8FD1
:4012C000FFF79CF9BB6818461037BD4680BD00BFB40200208C0200204C02002094020020B8010020B4010020A00200209C02002004ED00E080B483B000AF054B1B687B6031
:401300007B6818460C37BD465DF8047B704700BF9002002080B586B000AF00237B61494B1B68002B7ED1484B1B6801333B61464A3B6913603B69002B10D1444B1B68FB60D6
:40134000434B1B68414A1360414AFB681360414B1B6801333F4A136000F056FA3E4B1B683A699A424FD3394B1B681B68002B01D1012300E00023002B04D0374B4FF0FF3232
:401380001A6040E0314B1B68DB68DB68BB60BB685B687B603A697B689A4203D22E4A7B68136030E0BB6804331846FFF75DF8BB689B6A002B04D0BB6818331846FFF754F8E5
:4013C000BB68DB6A1A46012303FA02F2234B1B681343224A1360BB68DA6A13469B0013449B001F4A1A44BB68043310461946FEF7DFFFBB68DA6A1B4B1B68DB6A9A4201D3AF
:4014000001237B61AFE7174B1B68DA6A144913469B0013449B000B441B68012B01D901237B6104E0104B1B6801330F4A13600F4B1B68002B01D001237B617B6918461837A6
:40144000BD4680BDB4020020900200204402002048020020A4020020AC02002094020020B8010020B40100209C020020A002002080B586B000AF2E4B1B68002B03D02D4BD0
:4014800001221A6051E02B4B00221A602A4B1B681B6B7B614FF0A5333B617B691A683B699A4211D17B6904331A683B699A420BD17B6908331A683B699A4205D17B690C3364
:4014C0001A683B699A4208D01B4B1A681A4B1B6834331046194600F039FB184B1B687B607B68B3FA83F3FB70FB78C3F11F03FB60FA6813469B0013449B00114A1344BB6017
:40150000BB685B685A68BB685A60BB685A68BB6808339A4204D1BB685B685A68BB685A60BB685B68DB68044A13601837BD4680BDB4020020A0020020B40100209402002011
:40154000B801002080B582B000AF78603960074B1B68183378681946FEF74EFF3868012100F068FA0837BD4680BD00BFB401002080B584B000AF78607B68DB68DB68BB60CF
:40158000BB6818331846FEF76FFF1E4B1B68002B1ED1BB6804331846FEF766FFBB68DB6A1A46012303FA02F2174B1B681343164A1360BB68DA6A13469B0013449B00134A4F
:4015C0001A44BB68043310461946FEF7F1FE05E0BB6818330E481946FEF7EAFEBB68DA6A0C4B1B68DB6A9A4205D90123FB600A4B01221A6001E00023FB60FB68184610379D
:40160000BD4680BDB402002094020020B80100204C020020B4010020A002002080B483B000AF7860064B1A687B681A60054B1A687B685A600C37BD465DF8047B704700BFE3
:40164000A40200209002002080B584B000AF78603960FEF7BBFF1C4B1B68BB603B681B68B3F1FF3F02D10023FB6026E07B681A68164B1B689A4207D07B685A68BB689A42B6
:4016800002D80123FB6018E07B685B68BA68D21A3B681B689A420ED23B681A687B685968BB68CB1A1A443B681A607868FFF7B6FF0023FB6001E00123FB60FEF79FFFFB6898
:4016C00018461037BD4680BD90020020A402002080B400AF034B01221A60BD465DF8047B704700BFA002002080B582B000AF786000F040F8FCE700BF80B582B000AF0023BF
:401700007B600CE07A6813469B0013449B00114A13441846FEF720FE7B6801337B607B68042BEFD90C48FEF717FE0C48FEF714FE0B48FEF711FE0B48FEF70EFE0A48FEF780
:401740000BFE0A4B044A1A60094B044A1A600837BD4680BDB80100201C020020300200204C0200206002002078020020440200204802002080B582B000AF28E0FFF71CFDB8
:40178000164B1B68002B0CBF01230023DBB27B60FFF720FD7B68002B19D1FEF717FF0F4BDB68DB683B603B6804331846FEF75CFE0B4B1B68013B0A4A13600A4B1B68013B98
:4017C000084A1360FEF71AFF386800F00DF8054B1B68002BD2D10837BD4680BD600200208C0200207402002080B582B000AF78607B681B6B1846FEF74FFD7868FEF74CFD87
:401800000837BD4680BD00BF80B483B000AF0E4B1B681B68002B01D1012300E00023002B04D00A4B4FF0FF321A6008E0064B1B68DB68DB687B607B685B68044A13600C37CC
:40184000BD465DF8047B704744020020AC02002080B584B000AF78607B68FB607B68002B64D0FB68DA6A334B1B68DB6A9A425DD2FB689B69002B06DB2E4B1B68DB6AC3F1D6
:401880000502FB689A61FB685969FB68DA6A13469B0013449B00284A1344994201D1012300E00023002B3CD0FB6804331846FEF7DBFD0346002B15D1FB68DA6A1E491346B7
:4018C0009B0013449B000B441B68002B0AD1FB68DB6A1A4601239340DA43184B1B681340164A1360134B1B68DA6AFB68DA62FB68DB6A1A46012303FA02F2104B1B68134346
:401900000E4A1360FB68DA6A13469B0013449B00094A1A44FB68043310461946FEF748FD04E0044B1B68DA6AFB68DA621037BD4680BD00BFB4010020B801002094020020D2
:4019400080B584B000AF78607B68BB600023FB607B68002B51D0BB685B6C5A1EBB685A64BB68DA6ABB681B6C9A4246D0BB685B6C002B42D1BB6804331846FEF775FD0346F6
:40198000002B15D1BB68DA6A1E4913469B0013449B000B441B68002B0AD1BB68DB6A1A4601239340DA43184B1B681340164A1360BB681A6CBB68DA62BB68DB6AC3F1050277
:4019C000BB689A61BB68DB6A1A46012303FA02F20D4B1B6813430C4A1360BB68DA6A13469B0013449B00074A1A44BB68043310461946FEF7DDFC0123FB60FB681846103792
:401A0000BD4680BDB80100209402002080B400AF074B1B68002B04D0054B1B685A6C01325A64034B1B681846BD465DF8047B7047B401002080B584B000AF78603960284B08
:401A40001B68FB60274B1B6804331846FEF70CFD0346002B0BD1234B1B68DB6A1A4601239340DA43204B1B6813401F4A13607B68B3F1FF3F0AD13B68002B07D0194B1B68BD
:401A800004331A481946FEF793FC26E0FA687B681344BB60134B1B68BA685A60BA68FB689A4209D2124B1A680E4B1B68043310461946FEF7A1FC10E00E4B1A68094B1B6819
:401AC000043310461946FEF797FC0B4B1B68BA689A4202D2084ABB6813601037BD4680BD90020020B401002094020020780200204802002044020020AC02002080B500AFFF
:401B000000F00AF801204FF416510322FEF7BAFAFFF71CFBFEE700BF80B500AF074B084ADA62064B074A9A63044B074ADA6300F06FFC00F0DBFB00F0F3FB80BD0080FF1F4F
:401B400041050000310600008106000080B485B000AF786039604FF0A00383F31188BFF36F8FBFF34F8FFB60FEE700BF80B483B000AF4FF0A00383F31188BFF36F8FBFF33F
:401B80004F8F7B60FEE700BF80B582B000AF78603960386801210022FEF7FEFD0246134B1A6000F097FB124800F046FB386801210022FEF7F1FD02460E4B1A6000F058FD19
:401BC0000D4800F007FD002000F0B4FC094B1B68002B05D0054B1B68002B01D0012300E0002318460837BD4680BD00BFBC020020891C0000B80200201D1D000080B586B071
:401C000000AFF860B9607A6000237B61084B1B681846B9687A680023FEF710FF0346012B01D101237B617B6918461837BD4680BDBC02002080B586B000AFF8600B467A60BA
:401C4000FB7200237B610F4B1A6807F10B03104619467A680023FEF7E9FD0346012B02D101237B6101E000237B61FEF7AFFC032000F060FCFEF7C2FC7B6918461837BD4603
:401C800080BD00BFB802002080B586B000AF00237B600023FB700023BB7000237B6100F015FC0346FB70FB78DBB203F02003002B21D000F01DFC0346DBB2BB70EFF31182F5
:401CC0004FF0A00383F31188BFF36F8FBFF34F8F3A61FB603B697B610E4B1968BA1C3B1D084611461A460023FEF74EFE7B69BB60BB6883F311887B68002B07D0064B4FF026
:401D000080521A60BFF34F8FBFF36F8F1837BD4680BD00BFBC02002004ED00E080B586B000AF00237B600023FB700023BB7000237B6100F00FFC0346FB70FB78DBB203F085
:401D40000103002B05D1FB78DBB203F00203002B2AD0EFF311824FF0A00383F31188BFF36F8FBFF34F8F3A61FB603B697B61154B1968BA1C3B1D084611461A46FEF73AFFE3
:401D80000346012B08D1BB78DBB2184600F0EEFB012000F0CFFB02E0002000F0CBFB7B69BB60BB6883F311887B68002B07D0064B4FF080521A60BFF34F8FBFF36F8F1837CA
:401DC000BD4680BDB802002004ED00E080B500AF00F06AFC03461B680C2B00D1FEE7FEE780B586B000AF224B7B61224B3B61204B7B6135E03B691B68FB603B695B68BB6054
:401E00003B699B683B6000237B600CE0FB681A68BB681A60BB680433BB60FB680433FB607B6804337B607A683B689A42EED13B69DB683B6000237B6008E0BB6800221A604E
:401E4000BB680433BB607B6804337B607A683B689A42F2D13B6910333B617B69013B7B617B69002BC6D100F025FCFFF747FEFEE7010000009C27000080B582B000AF174B42
:401E8000174A1A60174A174B1B6843F40073136000237B600FE07B68032B04D8124A7B6852F8233000E0114B11497A6841F822307B6801337B607B682F2BECD90D4B1B784C
:401EC000DAB20D4B1A700D4B094A1A6000F024F90B4B00221A600837BD4680BD0CED00E00004FA0514ED00E000000000CD1D00000080FF1FBC7600400481FF1F08ED00E0A2
:401F00000081FF1F80B582B000AF78603960786800213A6800F0FFFB0837BD4680BD00BF80B584B000AFF860B9607A60F868B9687A6800F0E5FB1037BD4680BD80B483B02C
:401F400000AF0346FB71FEE780B487B000AF7860396000233B6100237B6127E07B699B007A6813441B68BB60BB68FB73BB6823F0FF03BB6014E03B695B003A6813441B780F
:401F80001A46BB68134419463B695B003A6813445B780B703B6901333B61FB7B013BFB73FB7B002BE7D17B6901337B617B69112BD4D91C37BD465DF8047B704780B582B0AC
:401FC00000AF344B4FF41C721A80334B18221A70324B40F22B121A80314B19221A70314B02221A704FF0402308221A702E4B03221A702E4B2E4A1278D2B21A702D4B102264
:402000001A802D4B41F251221A800023FB7019237B6014E0FB785B00DAB2284B1B78DBB203F00103DBB21343DBB203F00303FB704FF4F07000F028FB7B68013B7B607B686A
:40204000002B02D0FB78032BE4D17B68002B02D10320FFF773FF1A4B4FF480721A80184B07221A70174B00221A70174B48221A70134B00221A70154B02221A70144A144B1E
:402080001B78DBB243F00303DBB213700837BD4680BD00BF804000408240004084400040864000400043004000420040A14600400801004922420040204200402542004002
:4020C00004400040064000400840004001400040A243004080B483B000AF0B4B1B78FB710A4AFB7903F00703DBB21370084AFB791B09DBB21370074B44221A700C37BD46E6
:402100005DF8047B704700BFCF0100496E5800406F5800407658004080B582B000AF72B6364A364B1B78DBB243F00403DBB213700023FB7113E0FA7913465B0013445B001D
:402140002F4A13443B603B681A683B689B889BB210461946FFF7D6FEFB790133FB71FB79072BE8D94FF090402649FFF7EDFE264A254B1B78DBB243F00203DBB21370234AAE
:40218000224B1B78DBB243F00203DBB21370204A1F4B1B78DBB243F04003DBB213701D4A1C4B1B78DBB243F01003DBB213701A481A490A22FFF7B4FE19481A490822FFF70F
:4021C000AFFE194A184B1B78DBB243F00803DBB21370164B01221A70FFF7F0FE134BC1221A70134B01221A70FFF774FF114808490E22FFF795FE0837BD4680BDE84600407D
:4022000044270000480000480350014013500140A0430040C243004000510040EC03004812510040F8030048224300400048004004000840B043004080B582B000AF7860BB
:4022400000F03CF8786800F009F8072000F018F800F028F80837BD4680BD00BF80B485B000AF7860054B1B68FB60FB6840337A681A601437BD465DF8047B704708ED00E0F6
:4022800080B483B000AF0346FB71054AFB795B01DBB213700C37BD465DF8047B704700BF00E400E080B400AF034B01221A60BD465DF8047B704700BF00E100E080B400AF11
:4022C000034B01221A60BD465DF8047B704700BF80E100E080B400AF034B01221A60BD465DF8047B704700BF80E200E080B400AF094A094B1B78DBB243F00203DBB2137016
:40230000064A064B1B78DBB243F00203DBB21370BD465DF8047B7047A2430040B243004080B500AF054B1B78002B04D100F008F8024B01221A7000F02BF880BDC0020020C9
:4023400080B582B000AF104B1B78DBB223F03F03FB710D4AFB7943F00903DBB213700B4A0A4B1B78DBB243F00103DBB21370C72000F01EF8C72000F02BF87F2000F038F83A
:402380000837BD4680BD00BF746500409465004080B400AF054A054B1B78DBB263F07F03DBB21370BD465DF8047B70477465004080B483B000AF0346FB71044AFB7913704F
:4023C0000C37BD465DF8047B704700BF0465004080B483B000AF0346FB71044AFB7913700C37BD465DF8047B704700BF4465004080B483B000AF0346FB71044AFB7913700B
:402400000C37BD465DF8047B704700BF2465004080B500AF054B1B78002B04D100F008F8024B01221A7000F023F880BDC102002080B400AF094B72221A70094B20221A70F2
:40244000084B06221A70084B47221A70074B01221A70BD465DF8047B704700BF856500408764004027640040376400408664004080B582B000AF00F00FF90346FB71104A83
:402480000F4B1B78DBB243F02003DBB213700D4A0C4B1B78DBB243F01003DBB213700A4A094B1B78DBB243F01003DBB2137000F077F8FB79184600F0F3F80837BD4680BD6F
:4024C00095650040976400409664004080B483B000AF064B1B78DBB203F07F03FB71FB7918460C37BD465DF8047B70476764004080B483B000AF0023FB710C4B1B78BB715C
:40250000BB7903F02003002B09D0094B1B78FB71BB7903F01E03002B01D00023FB71FB7918460C37BD465DF8047B7047676400404565004080B483B000AF0346FB71044A76
:40254000FB7913700C37BD465DF8047B704700BF8664004080B400AF034B1B78DBB21846BD465DF8047B70476664004080B483B000AF0346FB7100BF074B1B78DBB203F074
:402580000403002BF8D1054AFB7913700C37BD465DF8047B704700BF666400404664004080B400AF094A094B1B78DBB243F00103DBB21370064A064B1B78DBB243F001036D
:4025C000DBB21370BD465DF8047B7047A2430040B243004080B582B000AF786000F03CF8786800F009F8072000F018F800F028F80837BD4680BD00BF80B485B000AF78609B
:40260000054B1B68FB60FB6844337A681A601437BD465DF8047B704708ED00E080B483B000AF0346FB71054AFB795B01DBB213700C37BD465DF8047B704700BF01E400E039
:4026400080B400AF034B02221A60BD465DF8047B704700BF00E100E080B400AF034B02221A60BD465DF8047B704700BF80E100E080B400AF034B02221A60BD465DF8047B7A
:40268000704700BF80E200E00230800803D000BF01380046FCD17047EFF3108072B6704780F31088704700BF014B1868704700BF7481FF1F0E4B70B51E460E4C0025E41A8D
:4026C000A410A54204D056F8253098470135F8E700F052F8084B094C1E46E41AA4100025A54204D056F8253098470135F8E770BD8427000084270000842700008C27000084
:4027000010B5431E0A44914204D011F8014B03F8014FF8E710BD03460244934202D003F8011BFAE77047000000000000434F4D5478000000434F4D527800000049444C45DB
:4027400000000000205100405000C05100401000F0510040100000000140001000140140000800400140000A004C0140000200500140200043000000F8B500BFF8BC08BCC6
:402780009E4670474D000000791E0000F8B500BFF8BC08BC9E46704729000000B02700000881FF1F70000000508100000000000000000000F87F0000AAAAAAAA0000000014
:4027C000000000000000000000000000000000000000000000000000000000007427000000000000000000000000000000000000000000000000000000000000000000003E
:40280000000000000000000000000000000000000000000000000000000000001481FF1F0000000000000000000000000000000000000000000000000000000000000000E5
:402840000000000000000000000000000000000000000000000000000000000000000000000000000000000000000000000000000000000000000000000000000000000058
:402880000000000000000000000000000000000000000000000000000000000000000000000000000000000000000000000000000000000000000000000000000000000018
:4028C00000000000000000000000000000000000000000000000000000000000000000000000000000000000000000000000000000000000000000000000000000000000D8
:402900000000000000000000000000000000000000000000000000000000000000000000000000000000000000000000000000000000000000000000000000000000000097
:020000040003F7
:0200000480007A
:40000000025200400264004001650040010301400305014059060140380701405D1401403A150140421601403C170140034001400A41014005420140044301400548014015
:40004000065001400151014000020102860F87388572820293409E02AF400020083809140A040B280C180D010E22120614121526162017181B101C281D261F0820012420E4
:400080002618272A29062B28303E33013401351E37203B203E103F444032410445E047BC483249FF4AFF4BFF4EF04F44500C54015604580459045A045B045F0166C06A40CC
:4000C0006B02860189028A0595039A069B019E03A202A806AA01AD03B607B703B980BA80BF40C005C604C9FFCA07CBFFCC40CD20CEF0CF05D008D418D604D804D904DA0435
:40010000DB04DF01E040E1A8E240E320031404200540064008500E600F02108011101501170419401E4820022648270429402C202D202F08302033143450354036303704CF
:40014000382039103D103E404440471448214D015080524057095B015D215E88604666028A0893409E02C0D6C2B3C43ACA68CC76CE34D0E0D208D6F1D88DE6800A0112022E
:400180001E0422042A0130013202340436023E104010410246204701481849FF4AFF4BFF4DA04F045018528058045A045B045C015D115F01604062C06440654066C068C016
:4001C0006AC06CC06EC08501860189268B188F049101950899189D109E02A138A306A53CA702A901AA02AD3EB101B31CB520B603B702B980BA02BE40BF10C065C104C203D6
:40020000C401C5E0C70CC812C9FFCAFFCBFFCC62CDA0CEF0CF41D00CD602D711D804D904DA04DB04DF01E640E702E910EA30EB10ED10EE10EF120010040809400B400F0118
:4002400010801208171018151B021D831E402440254826122E402F58354037253C603D043F1040014320458A4C804E024F105208532057045E206D046F09734075547724D6
:40028000900893A19444950496409B109D55A010A508A70EAC10AE20C022C289C44ACAF0CCF0CE70D0DCD230D62000FF018A0331040C070C0804092C0BC00C080F0C12B37E
:4002C000130C140315451722184C190C1AA31C42204F229024F325E3260C280129E32D0C2E403110320F3303347C35E0368C370C3AA85608580459045B045D905F01850295
:40030000860C88018A068B02940C9603970199049C019E0EA102A208A603AB01B101B20FB506B920BA08BF01D804D904DF01022403040555084209020A200D200E200F8119
:4003400010A014101660175018201A201C281D201E021F5021022220240825102614275128402B042D042E402F08302031083410360538203A443B803C483D203F815F408C
:40038000670183029340942498409B049C029F01A0A0A620A840C0F6C2F5C4FCCA75CCE6CEF6D610D81033803510CC30000850105D8081109D10A780C010D420D620E62014
:4003C00094209D80A780AC04EC40898094209D80A78080109420AB80E220EE2000010A01100311011A031B01000F0000020001060600060000000000000B0B000000000005
:4004000000000000000000000000000000000000000000000000000000000000000000000000000000000000000000000000000000000000000000000000000000000000BC
:40044000000000000000000000000000000000000000000000000000000000000000000000000000000000000000000000000000000000000000000000000000000000007C
:40048000000000000000000000000000000000000000000000000000000000000000000000000000000000000000000000000000000000000000000000000000000000003C
:4004C00000000000000000000000000000000000000000000000000000000000000000000000000000000000000000000000000000000000000000000000000000000000FC
:0200000490006A
:0400000000004005B7
:0200000490105A
:04000000BC90ACAF55
:0200000490303A
:0200000008C234
:0200000490402A
:4000000000000000000000000000000000000000000000000000000000000000000000000000000000000000000000000000000000000000000000000000000000000000C0
:400040000000000000000000000000000000000000000000000000000000000000000000000000000000000000000000000000000000000000000000000000000000000080
:400080000000000000000000000000000000000000000000000000000000000000000000000000000000000000000000000000000000000000000000000000000000000040
:4000C0000000000000000000000000000000000000000000000000000000000000000000000000000000000000000000000000000000000000000000000000000000000000
:0200000490501A
:0C00000000012E12706900012E23792BE4
:00000001FF